:020000040000fa
:080000000013040000000000e1
:020000040000fa
:1000080002100000061000000a1000000e10000088
:1000180012100000161000001a1000001e10000038
:1000280022100000261000002a1000002e100000e8
:1000380032100000361000003a1000003e10000098
:1000480042100000461000004a1000004e10000048
:1000580052100000561000005a1000005e100000f8
:1000680062100000661000006a1000006e100000a8
:1000780072100000761000007a1000007e10000058
:1000880082100000861000008a1000008e10000008
:1000980092100000961000009a1000009e100000b8
:1000a800a2100000a6100000aa100000ae10000068
:1000b800b2100000b6100000ba100000be10000018
:1000c800c2100000c6100000ca100000ce100000c8
:1000d800d2100000d6100000da100000de10000078
:1000e800e2100000e6100000ea100000ee10000028
:1000f800f2100000f6100000fa100000fe100000d8
:1001080002110000061100000a1100000e11000083
:1001180012110000161100001a1100001e11000033
:1001280022110000261100002a1100002e110000e3
:1001380032110000361100003a1100003e11000093
:1001480042110000461100004a1100004e11000043
:1001580052110000561100005a1100005e110000f3
:1001680062110000661100006a1100006e110000a3
:1001780072110000761100007a1100007e11000053
:1001880082110000861100008a1100008e11000003
:1001980092110000961100009a1100009e110000b3
:1001a800a2110000a6110000aa110000ae11000063
:1001b800b2110000b6110000ba110000be11000013
:1001c800c2110000c6110000ca110000ce110000c3
:1001d800d2110000d6110000da110000de11000073
:1001e800e2110000e6110000ea110000ee11000023
:1001f800f2110000f6110000fa110000fe110000d3
:1002080002120000061200000a1200000e1200007e
:1002180012120000161200001a1200001e1200002e
:1002280022120000261200002a1200002e120000de
:1002380032120000361200003a1200003e1200008e
:1002480042120000461200004a1200004e1200003e
:1002580052120000561200005a1200005e120000ee
:020000040000fa
:1020000002000000fa13040000000000fa130400ac
:1020100000000000fa13040000000000fa1304009e
:1020200000000000fa13040000000000fa1304008e
:1020300000000000fa13040000000000fa1304007e
:1020400000000000fa13040000000000fa1304006e
:1020500000000000fa13040000000000de48040045
:1020600000000000fa13040000000000fa1304004e
:1020700000000000fa130400000000009630040085
:1020800000000000fa13040000000000fa1304002e
:1020900000000000fa130400000000003e460400a7
:1020a000000000001246040000000000fa130400c3
:1020b00000000000fa13040000000000fa130400fe
:1020c00000000000fa13040000000000fa130400ee
:1020d00000000000fa130400000000002e3004008d
:1020e00000000000fa13040000000000fa130400ce
:1020f00000000000fa13040000000000fa130400be
:1021000000000000fa13040000000000fa130400ad
:1021100000000000fa13040000000000fa1304009d
:1021200000000000fa13040000000000fa1304008d
:1021300000000000fa13040000000000fa1304007d
:1021400000000000fa13040000000000fa1304006d
:1021500000000000fa13040000000000fa1304005d
:1021600000000000fa13040000000000fa1304004d
:1021700000000000fa13040000000000fa1304003d
:1021800000000000fa13040000000000fa1304002d
:1021900000000000fa13040000000000fa1304001d
:1021a00000000000fa13040000000000fa1304000d
:1021b00000000000fa13040000000000fa130400fd
:1021c00000000000fa13040000000000fa130400ed
:1021d00000000000fa13040000000000fa130400dd
:1021e00000000000fa13040000000000fa130400cd
:1021f00000000000fa13040000000000fa130400bd
:1022000000000000fa13040000000000fa130400ac
:1022100000000000fa13040000000000fa1304009c
:1022200000000000fa13040000000000fa1304008c
:1022300000000000fa13040000000000fa1304007c
:1022400000000000fa13040000000000fa1304006c
:1022500000000000fa13040000000000fa1304005c
:1022600000000000fa13040000000000fa1304004c
:1022700000000000fa13040000000000fa1304003c
:1022800000000000fa13040000000000fa1304002c
:1022900000000000fa13040000000000fa1304001c
:1022a00000000000fa13040000000000fa1304000c
:1022b00000000000fa13040000000000fa130400fc
:1022c00000000000fa13040000000000fa130400ec
:1022d00000000000fa13040000000000fa130400dc
:1022e00000000000fa13040000000000fa130400cc
:1022f00000000000fa13040000000000fa130400bc
:1023000000000000fa13040000000000fa130400ab
:1023100000000000fa13040000000000fa1304009b
:1023200000000000fa13040000000000fa1304008b
:1023300000000000fa13040000000000fa1304007b
:1023400000000000fa13040000000000fa1304006b
:1023500000000000fa13040000000000fa1304005b
:1023600000000000fa13040000000000fa1304004b
:1023700000000000fa13040000000000fa1304003b
:1023800000000000fa13040000000000fa1304002b
:1023900000000000fa13040000000000fa1304001b
:1023a00000000000fa13040000000000fa1304000b
:1023b00000000000fa13040000000000fa130400fb
:1023c00000000000fa13040000000000fa130400eb
:1023d00000000000fa13040000000000fa130400db
:1023e00000000000fa13040000000000fa130400cb
:1023f00000000000fa13040000000000fa130400bb
:1024000000000000fa13040000000000fa130400aa
:1024100000000000fa13040000000000fa1304009a
:1024200000000000fa13040000000000fa1304008a
:1024300000000000fa13040000000000fa1304007a
:1024400000000000fa13040000000000fa1304006a
:1024500000000000fa13040000000000fa1304005a
:1024600000000000fa13040000000000fa1304004a
:1024700000000000fa13040000000000fa1304003a
:1024800000000000fa13040000000000fa1304002a
:1024900000000000fa13040000000000fa1304001a
:1024a00000000000fa13040000000000fa1304000a
:1024b00000000000fa13040000000000fa130400fa
:0424c0000000000018
:020000040000fa
:102600004fe121000eff27000e01880000000000ae
:10261000000020000000e000020032000001200065
:10262000200288000c000700404c2400010020001c
:102630000f000700000020000000e0000200320050
:102640000000020000000000383d02000000000011
:102650000040da000000fe00000c20000000e00056
:1026600002003200002020009001880000000600d7
:10267000a1028800800078000000eb001a003700fb
:10268000e280400054a0b4009101ba00e280400012
:1026900054a0b4009102ba00e280400054a0b400fb
:1026a0000002eb00472bde00f507b200a601880010
:1026b000602ce10008003a000049eb000201e8004c
:1026c000020039003420ec0002f0a0008301e90090
:1026d000f9ff3e00040037006128e10001003200ec
:1026e0000082eb00040007001101ba000200e000c4
:1026f000e3ff3a000000060004d0a300e20f490007
:102700001c003900810278003549ba000201e80056
:10271000020039003420ec0002f0a0008301e9003f
:102720000f0032002549ba000201e800020039001a
:102730003420ec0002f0a0008301e9000800320020
:102740000400e0000600320015c9ba000201e800ea
:10275000020039003420ec0002f0a0008301e900ff
:102760008180e80054a0b4000300e000e2ff3a00da
:10277000000006009102ba00055978008301e900c3
:10278000f7ff3200c82ade00055978008301e9000e
:10279000f3ff32000400e000f1ff320011d9ba006b
:1027a000eeff3700442d040000000000022e04005c
:1027b00000000000882e040000000000ea31040040
:1027c000000000003a290400000000007c260400fc
:1027d00000000000642c040000000000b816040093
:1027e000000000005c19040000000000000004006c
:1027f000000000000040da000000fe000a00fa00bd
:1028000011002000b1bf9f00c0bf9f006a80570029
:10281000f90407004fb897000080fa000000060096
:102820000a00fa00e20f500020003e0060ed800038
:10283000e10f5000060032008023200045232000d5
:1028400023232000042320000000e00004003a00bd
:102850008022200045222000232220000422200084
:10286000060028001403630003003a0006087800fd
:1028700000002800140a700013a8a30001003a0009
:1028800013a0a00002007800050037001388a30001
:10289000feff32003102fb00840a78000000e900ec
:1028a0000000e000f9ff3a00080037003300200084
:1028b000b3bf9f00c0bf9f00d1bf9f00e2bf9f007a
:1028c0006a805700ce0407006fb9970002007800b5
:1028d0000080fa00000006000a00fa005100200003
:1028e000b1bf9f00c0bf9f006a805700c6040700a9
:1028f0005fb897000080fa0000000600889fbe00c5
:102900008004780070ed80000000e00004003a00d0
:102910000e0007000084eb000000e0000800350016
:1029200078ed80000900e000050032000900440055
:10293000060007000000e00001003d000084eb00fd
:10294000080078004f04be000000060080007800f8
:102950000100e00003003a0000db210070ed880078
:10296000000005000080eb0042e12100828f500052
:1029700002003e0071ed88000000eb000000060040
:102980006022b800060220000000d0008180d20042
:102990000482d2008582d2000000a0000202520010
:1029a00083825a00030031000202420083824a00ff
:1029b0000000a1000603e900f3ff3a000000060052
:1029c00061cb21000b00370061cb21002f000700f5
:1029d000800078000080eb000100e000040035007a
:1029e00061cb2100a0002000020007004f80de0024
:1029f00000000600889fbe008a1f78000004be0009
:102a0000c900900069009000808f500005003900d7
:102a1000090078008e0007008080eb000000e000d5
:102a200016003500084578004900900008587800e5
:102a3000c00498001900780000b8a30004003a0010
:102a400000a8a30007003200ea4f540005003a0036
:102a500009007800230207008080eb000000e000fe
:102a600006003a0000c02000190060000200320099
:102a700049009000e00498008a80fb000100780083
:102a80004f0578004f04be0000000600889fbe007e
:102a90008a9fbe008c1f78008004780001047800b3
:102aa0002f003700c800900068009000808f500011
:102ab0000400390008007800650007000000e0000d
:102ac0003a00350000402000180060000a00320083
:102ad000a1002000090078005000070000067800df
:102ae0000c00e00004003200618514000a05460075
:102af000cfd5de0004003700090078003e00070053
:102b00000005be000006eb00480090006801900040
:102b100000015100cf91de008a0f51008b8f5900c8
:102b2000020031000205be000006eb000a01be00f3
:102b30008900780022000700480090000a00400049
:102b4000400498000c00e000040032000800780007
:102b5000e40107000000e00014003a008a84440009
:102b60001904e000cfff3a00008020001800600048
:102b70000600320008007800da01070080007800c3
:102b80000080eb000100e00009003a0001c02000d5
:102b9000988060000000eb000500320048009000c3
:102ba000600498000000eb00010037000080eb009b
:102bb0004f0678004f05be004f04be00000006001f
:102bc0000202be008001eb0007003700611bb80065
:102bd0000601400006834000164978006102520059
:102be000e0825a008301e800e00f5200e08f5a00b3
:102bf000f6ff3a0000000600800078000000eb00bd
:102c0000008140000000e8001204e000fcff3a00f0
:102c100001005100cf80de00000006006011b80006
:102c20006103b80006034100e0834b0016427800c0
:102c3000814f520001003a00860178000201e8004d
:102c40000404e000f6ff3a000300780000000600ec
:102c5000889fbe008a1f780000047800c80090009a
:102c6000680190000000eb00828f50003d003900a9
:102c7000180078002200290002016000e20f5100d4
:102c800007003200012024000000e00001003d00a8
:102c900001202000008c70000080eb003100370024
:102ca0000200260002006000820f500009003a0076
:102cb00038009000808f500006003900080078002e
:102cc00088010700800078000080eb000100e00030
:102cd00024003a001805780000c0200000006500bc
:102ce00019003a00a804900060022000080040008b
:102cf000808f540014003a000020200001002000c2
:102d0000a9020700200498000000e00005003a0036
:102d100029049800490498008904e80039049800bf
:102d2000080037000a60a0000a0c780040049800f0
:102d3000012020008080400031049800400c980061
:102d4000500c9800110107002800900050049800d2
:102d5000380090006004980000002600180c7000f5
:102d60000000eb004f0578004f04be000000060095
:102d7000881f78008a9fbe00000478000100780058
:102d80000205be00880078000202be00120020008a
:102d900003002000de0107008a0f50008b8f5800cf
:102da000010032000004eb00080078004f05be006f
:102db0004f047800000006000000fa00e881570088
:102dc0004fb9970061cb2100806b21000200070002
:102dd0000080fa00000006006200fa00889fbe0032
:102de0008a9fbe0000057800810478000204780004
:102df0008300780060f92f000f0040008d0107006c
:102e00008a979f0099979f000000eb00a09f9f006a
:102e10001885fb008a04fb000a05ea004f55de0016
:102e200050022000808f54000e003200e10f550048
:102e30000c003a00120020000300200088007800f7
:102e40001f9097000f9297000400010090979f0039
:102e50000000e000970032002f9897000000e80083
:102e6000a09f9f000a04440050022000808f54005d
:102e7000040032000900e000e5ff3a002f989700b7
:102e80008d0037000000eb00809f9f00f0979f00af
:102e9000e0979f00d0979f00c0979f00b0979f003a
:102ea000c09f9f000005eb0008003700a1d821005b
:102eb000810050008100d000e2d7210082804000d4
:102ec0004f98970011007000c09f9f008a04440033
:102ed000994578008b00fb00a0d821003c01070039
:102ee0000a05e8000000e000f0ff3a00a1c2b300cc
:102ef00081cf55000e003a00bf8897000180e9009d
:102f0000b08f9f0010007800b09f9f000000e0008d
:102f100005003d000000ea00b09f9f004f98970019
:102f20000020a000c09f9f000904e8000f003700a8
:102f3000b09f9f006000b80006003700f3ff270035
:102f4000830f500002003200ea00b9000000410087
:102f50008100e800018444001801fb000203b10075
:102f6000e90f5100f5ff3600b09f9f00e0c2b300ab
:102f7000984f1000030032000080eb00909f9f00ec
:102f80002000370008007800a1c2b300d0cf1000a5
:102f900007003a003f8997008280e900b18f9f00c7
:102fa00091007800919f9f000004e8001500370011
:102fb0000000eb00909f9f008000eb0006003700b0
:102fc000f2ff2700820f500002003200ea00b90031
:102fd000000042008100e8000801e8008001eb00e9
:102fe00002814000e0814900124278000402fb00a7
:102ff0000403b100e90f5200f1ff3600909f9f00db
:1030000002047800984478008900fb0060d7210012
:10301000ef0007000000e000020032000804e800b2
:10302000010037008044eb00a97f9f0080c6b300f9
:1030300080cf540004003a0098cf14000a003a00f0
:103040006640500006003700c0c6b30080cf540071
:1030500005003a0098cf140003003a006540400094
:10306000a07f9f000804e8001801fb00c3fb2f00ad
:103070008f81410061f92f008f80400080f92f007f
:103080000f004000100007000000e00009003a00b7
:10309000c1fb2f008f80400080f92f000f004000ff
:1030a000160207000000e000020035000804e800f6
:1030b00057ff37000080eb004f05be004f04be00f5
:1030c0000080fa0000000600889fbe008a1f78007a
:1030d0000004780030c5b300804f51000800320072
:1030e00030c7b300804f51000500320051c2b30019
:1030f00078009000814f510017003a00140037000b
:103100001180e90080087800100578006a049800b2
:10311000d80c90000900e00004003d000a0078008f
:10312000b5fe070080047800070037006149b90048
:103130008000eb000a007800d20107000000e000e8
:10314000010032008a045000190c98000900370071
:103150008081410004003700808141000204e000ca
:1031600001003a0001417800824978000000e8003f
:10317000700498000000eb004f0578004f04be007b
:1031800000000600c09521009d003700881f7800d0
:10319000a8da21001804e00003003a00f9ff070054
:1031a00020c0b300004c78004f04780000000600f7
:1031b000889fbe00000478000800780049000700de
:1031c0008004780000042000180060000200320033
:1031d00028009000990007000000eb0020049800f0
:1031e000384090000004e000050035000000fb00be
:1031f00082fd07000000e000010032008084eb0047
:10320000181090000000e00008003200b2fd070036
:103210000000e000010032008084eb0018109000f4
:10322000860007000000eb00101498000008200042
:10323000180060000f00320041d021000000eb00b8
:10324000d10f140005003a000000400061d02100b9
:10325000008040000008eb00030037000000e80099
:10326000e80f5000f6ff3a000800780073000700ee
:103270000e003700000c780000c0eb0030449800ce
:1032800060022000080040002004980040049800dc
:1032900050049800400c980060049800500c98006e
:1032a0007004980076004400000c98000900780033
:1032b0004f04be0000000600889fbe0068d12100b8
:1032c000f0045400480078000000e00001003200e3
:1032d000b7ff0700890f5400faff3a004f04be0001
:1032e00000000600889fbe008a1f78000004780056
:1032f0000800e0000d003a0048d0210070054400ad
:103300008004eb00580078000000e0000400320068
:10331000f4ff07000000e00001003d008084eb00a6
:103320008a0f5400f7ff3a00250037000000220002
:10333000180060008004eb0021003200a804900017
:103340000f00370009015100384090000000fb00d9
:103350008900780032fd07000000e00007003c0013
:10336000280090004004980060049800500c9800d9
:103370001890a0008084eb00110037008084440086
:1033800048019000828f5400eeff39002800900021
:10339000400498009800780002c02000028160007c
:1033a00001003a003800900001e8a300020032005a
:1033b0006004980001003700500c98008004eb0076
:1033c000090078004f0578004f04be000000060099
:1033d000020037000304e00006003200000178001c
:1033e00002007800b041780081cf5100f9ff3a0027
:1033f000010037000001eb00020078000000060029
:10340000010020000100e0000900320001008000fe
:103410000100e000060032008100e90001008800a0
:103420008180400002008000810041008008780017
:103430000000060001087800000006000000e0001f
:10344000320032004002be00e50f5200e08f5a0009
:103450002e0036000408a3002c003a0041ed800045
:103460000100e00002003200810f50000400310032
:103470002100980040ed8800170037008200780096
:10348000210190000200e00002003200800f510094
:10349000faff39001103be0086814000830f5000ff
:1034a0001a003900808f510004003a00841843004c
:1034b00085904b0001007800070037000200e00013
:1034c0000300320004024000840f51000f00390055
:1034d00022009800a0009800a00090000100e000e9
:1034e0000a00320010014000828f500007003a00ad
:1034f00062da21000009eb001001be003118410022
:1035000021904900a10090002100980000000600d1
:10351000ea874700889fbe008a9fbe008c9fbe003e
:103520008e1f7800000678000204be000405be006d
:10353000010778000400be00b5010700d0b79f0066
:10354000e1b79f00e00f5000e08f580052003200ba
:10355000e00f5400e08f5c0050003200fcb79f0089
:103560000006be00ce0090006e009000808f5000dc
:10357000040039000e007800b5fd07000000e000ef
:1035800033003500004020001e0060000c003200b7
:103590000c01be00a10020007fb09700b900070019
:1035a000000278000400e00008003200ffb197003c
:1035b000618511000a054200cfd5de000400370006
:1035c0000c05be000002eb00010037000c05be0038
:1035d0004e0090006e01900000015100cf91de007e
:1035e0008a0f51008b8f5900020031000205be0086
:1035f0000002eb000a01be00ffb0970084bf9f00ed
:103600006ffd07000a0656008b865e004e00900094
:103610000a004000400798000fba97000400e0003d
:10362000040032000e0078002eff07000000e000ca
:1036300007003a00e00f5600e08f5e000400320001
:103640007fb097000a004000f0b79f00c5ff370029
:10365000008020001e006000020032000e00780092
:1036600020ff070000c020001e00600002003200a2
:10367000ce009000610798005fb19700efb197000e
:103680000c0051008d8059000801be00bcfc0700f1
:103690000005be00010037006055b8000a00be00fa
:1036a0004f0778004f06be004f05be004f04be0016
:1036b000af00b10000000600889fbe008a9fbe00d8
:1036c0000004be0031ed80000100e0000200320085
:1036d000010078000f00370041ed800080da210002
:1036e00005003700b10f5400a18f5c002b0036009d
:1036f00064804000a10090000100e000f9ff3a0062
:1037000012003700b20f5400a28f5c002300360075
:1037100064004100100178000200e000f9ff3a0067
:103720001101780041ed800080da210005003700aa
:10373000b10f5400a18f5c00180036006480400077
:10374000a1009000828f5000f9ff3a001aed80002e
:103750002bed8000880f5500898f5d00010031003e
:103760000805be000a00be00580007000000e00087
:1037700006003a00880f5500898f5d000600320070
:103780008b05d1000a85d300f2ff37000a98be00ee
:103790002aff0700cbff37000000eb004f05be00fb
:1037a0004f04be0000000600889fbe000002be005d
:1037b00065004000e0804800000378000600a1009a
:1037c00081017800060178000204be008000eb0051
:1037d000840f5400858f5c0027003600e50f5400ed
:1037e000e08f5c0002003e0068002000090020001d
:1037f0000800be00b0ff07008000eb000000e00002
:103800001d00320090007800a4ff2f00f5ff2f006c
:1038100031014200a1814a00880f5100898f59006f
:1038200003003100a102900005087800080037006d
:103830000881400002087800a1019000230198004f
:10384000100178003119140021911c008888be00f5
:10385000100178000000eb000200e00004003200dc
:10386000a20190000300e00001003200640041006a
:1038700030ed8800e4804000010078004f04be0075
:10388000000006000202be008001eb0005003700c8
:103890008301e80092cf10000a003200610252005a
:1038a000e0825a006103b80006834100e0834b00c8
:1038b00006017800e00f5200e08f5a00f4ff3a0052
:1038c0000000050006007800000006000001be00b0
:1038d0008000eb000200e0000600340002007800e7
:1038e00006fc070080007800e18f400001003a00ec
:1038f0008000eb0001007800000006000400fa00e0
:10390000889fbe008a9fbe008c1f7800000478004c
:1039100001067800f80d9000780090008085550031
:103920000808900080855500180890008085550093
:103930002808900080855500380890008085550043
:1039400048089000808555000002220090bf9f002b
:1039500000032300a0bf9f00081090000028a300d0
:1039600015003a000b00e000130034000b0578004e
:103970008a047800e20f550001003600290020007b
:103980006149b90048029000ee805700580090004d
:1039900004000100500498000000e0008f00320095
:1039a0006808900009004000600c98000905550067
:1039b0004240a900eeff3c00780090000000e000cb
:1039c0000d0034006101b900480290008c007800bd
:1039d0005800900004000100500498008080eb0023
:1039e0000000e0007e003200e808900078009000bf
:1039f00000804000600c9800880c90000900e000f6
:103a00001100340009057800e28f540001003600ef
:103a10002a0020006151b90048029000ec80570054
:103a20005800900004000100500498000000e000dd
:103a30006a003200680890000a004000600c98009c
:103a40008a845400edff3700180890000000e00061
:103a50000d0034006101b90048029000e8009000b8
:103a60005800900004000100500498008080eb0092
:103a70000000e0005a003200e808900018089000aa
:103a800000804000600c9800a80c90000900e00045
:103a90001100340009057800e28f5400010036005f
:103aa0002a0020006151b90048029000ec805700c4
:103ab0005800900004000100500498000000e0004d
:103ac00046003200680890000a004000600c980030
:103ad0008a845400edff3700380890000000e000b1
:103ae0000f0034006101b90018089000e800900050
:103af00080804000480290005800900004000100bf
:103b0000500498008080eb000000e0003400320098
:103b1000e80890003808900000804000600c980091
:103b2000c80c90000900e00011003400090578007d
:103b3000e28f5400010036002a0020006151b900d4
:103b400048029000ec8057005800900004000100eb
:103b5000500498000000e000200032006808900047
:103b60000a004000600c98008a845400edff370082
:103b7000081090008000eb000028a300180032001d
:103b80000b00e000160034008b0478000905780073
:103b9000e28f5400010036002a0020006151b90074
:103ba00048029000ee805700580090000400010089
:103bb000500498000000e0000800320068089000ff
:103bc0000a004000600c98008a8454004240a9001a
:103bd000eeff3c008000eb00010037008080eb002e
:103be000010078004f0678004f05be004f04be006c
:103bf0000080fa000000060000c0da0000000600a5
:103c000000c0da000000060000c0da000000060074
:103c1000020ab900001bb9000200b800810042008e
:083c20008100430000000600d2
:020000040000fa
:103c2800486500006c6c00006f2100002121000035
:103c38000d0000004920000077610000732000009b
:103c480062750000696c0000742000006279000051
:103c5800204a0000616d00006573000020540000d8
:103c680061740000650d0000004d0000792000001f
:103c780062750000696c0000642000006c6f000031
:103c8800677300003a0d0000000a0000456d00004f
:103c98006265000064640000656400002f73000022
:103ca800726300002f69000072690000675f0000fe
:103cb800622e0000632c000020620000756900007d
:103cc8006c740000206f00006e2000004a61000044
:103cd8006e20000032360000203200003031000033
:103ce800362000006174000020310000363a0000e0
:103cf800323200003a320000340000000d000000ab
:103d08006e6f00000031000030000000313100000b
:103d180000310000320000003133000000310000a3
:103d2800340000003135000000310000360000008a
:103d38003137000000310000380000003139000040
:103d48000032000030000000323100000032000074
:103d5800320000003233000000320000340000005e
:103d6800686f0000757200003a2000000020000013
:103d78006d6900006e75000074650000733a0000fc
:103d88002000000020730000656300006f6e0000d3
:103d9800647300003a200000000a00000d000000d3
:020000040000fa
:103da800834378009301800091018800000000009f
:103db8001003780093018800000000000600a100ad
:103dc800a3018000a101880006087800a3018800eb
:103dd8009301800091018800000000001003780022
:103de80093018800000000000610a100a3018000d4
:103df800a101880006087800a3018800f37f20004d
:103e080003016100c211dd00920180009101880068
:103e180000000000100378009201880000000000f4
:103e280032002e000201630002817100a3018000ac
:103e3800a101880002087800a3018800960180008b
:103e48000002d0004400b0004220a800e0824800f0
:103e58004220ae004200a8000482d3008501780009
:103e680093018800000000000401780092027800a5
:103e7800960188000000000004002f008482620080
:103e8800a4018000a301880005097800a401880026
:103e9800940180000001d0008200b0004220a800f8
:103ea800e08148004220ae004200a8000281d30011
:103eb800830078009101880000000000020078006b
:103ec800900178009401880000000000f33fb200e0
:103ed800a2018000a101880003087800a2018800df
:103ee8009301800091018800000000001001780013
:103ef80093018800000000000290a100a301800047
:103f0800a101880002087800a301880093018000bd
:103f180091018800000000001001780093018800da
:103f2800000000000280a100a3018000a101880018
:103f380002087800a301880093018000910188009d
:103f480000000000100178009301880000000000c4
:103f58000240a100a3018000a101880002087800a6
:103f6800a30188006f81630093018000910188009c
:103f78000000000090037800930188000000000012
:103f880003ff2f008383630087037100a201800071
:103f9800a101880007087800a20188000000060037
:103fa800889fbe008a1f78009801800091018800d0
:103fb80000000000900378009801880000000000cd
:103fc8000700a000a8018000a10188000708780068
:103fd800a801880098018000910188000000000075
:103fe8009003780098018800000000000710a100e5
:103ff800a8018000a101880007087800a8018800ae
:10400800421cde0009002000f77f2000888363003f
:10401800c23bdd009801800091018800000000008b
:1040280090047800980188000000000038002e00f5
:104038000884640008847300a7018000a101880037
:1040480008087800a7018800c61bde00ca1add0030
:104058004613de0006837200f8ff20008603640022
:104068009a0180000004d0004800b0004220a80057
:10407800e08448004220ae004200a8000884d30033
:104088000903780096018800000000008802780083
:10409800950478009a0188000000000008002f00ad
:1040a8000884640008847300a7018000a6018800c2
:1040b800880a7800a70188004a11dd009501800070
:1040c8000003d0008600b0004220a800e08348002a
:1040d8004220ae004200a8000683d3008700780083
:1040e8009101880000000000060078009001780027
:1040f8009501880000000000f33fb2000301710041
:10410800a3018000a101880002087800a3018800ab
:1041180093018000910188000000000010017800e0
:1041280093018800000000000290a100a301800014
:10413800a101880002087800a3018800930180008b
:1041480091018800000000001001780093018800a8
:10415800000000000280a100a3018000a1018800e6
:1041680002087800a301880093018000910188006b
:104178000000000010017800930188000000000092
:104188000240a100a3018000a10188000208780074
:10419800a30188006f0162009301800091018800eb
:1041a8000000000010027800930188000000000061
:1041b80003ff2f000302620004027100a2018000c5
:1041c800a101880004087800a20188004f05780042
:1041d8004f04be0000000600920180009101880093
:1041e8000000000010027800920188000000000022
:1041f8004322dd004522de008002eb00c222dd0002
:1042080004002000970180000001d0004200b000a7
:104218004220a800e08148004220ae004200a800e9
:104228000281d30003037800960188000000000093
:10423800120378009701880000000000f2ff2000b8
:10424800020363008003eb004639dd00ca31de005b
:10425800830171004631dd00020272008382720020
:10426800930180000000d0008000b0004220a80028
:10427800e08048004220ae004200a8000080d30041
:104288000101780092018800000000001001780008
:1042980093018800000000004a11de000281fb0043
:1042a8008001eb00020072008380720000000600ab
:1042b8000164a800b05d240090208800100c200044
:1042c80080208800000006007f406000ef4f50000b
:1042d80007003600704050000080fb0011002000ed
:1042e8000008dd000080ea002224b600050037003f
:1042f8000080fb00110020000008dd000080ea00bb
:104308002024b600000006007f406000ef4f5000f8
:104318000700360011218000704050000080fb002b
:10432800120020000010dd00014060000500370089
:10433800012180000080fb00120020000010dd0039
:1043480001406000000006002024ef002224ef0056
:104358002824ef002a24ef000000060067406000d0
:10436800e34f50002f00320004003e00e14f5000a0
:10437800140032001f003e0006003700e54f5000d1
:104388004000320033003900e64f500055003a0033
:1043980048003700e1806000c708dd00f0f72f0013
:1043a8003004b6000080700080218800630161003d
:1043b800c0ff2f003004b600000071008021880083
:1043c80053003700cf08dd00f0ff27003004b600a7
:1043d8000080700080218800630161004811dd00c1
:1043e800f0cf2f003004b600000071008021880053
:1043f80047003700e1806000c708dd00f0f72f00b4
:104408003204b600008070009021880063016100ca
:10441800c0ff2f003204b600000071009021880010
:104428003b003700cf08dd00f0ff27003204b6005c
:104438000080700090218800630161004811dd0050
:10444800f0cf2f003204b6000000710090218800e0
:104458002f003700e1806000c708dd00f0f72f006b
:104468003404b60000807000a02188006301610058
:10447800c0ff2f003404b60000007100a02188009e
:1044880023003700cf08dd00f0ff27003404b60012
:1044980000807000a0218800630161004811dd00e0
:1044a800f0cf2f003404b60000007100a02188006e
:1044b80017003700e1806000c708dd00f0f72f0023
:1044c8003604b60000807000b021880063016100e6
:1044d800c0ff2f003604b60000007100b02188002c
:1044e8000b003700cf08dd00f0ff27003604b600c8
:1044f80000807000b0218800630161004811dd0070
:10450800f0cf2f003604b60000007100b0218800fb
:104518000000060067406000e34f500011003200c1
:1045280004003e00e14f50000a0032000b003e003c
:1045380006003700e54f50000e0032000b0039002e
:10454800e64f50000f003a000c0037003064a80016
:104558000d0037003164a8000b0037003264a80052
:10456800090037003364a800070037003464a80046
:10457800050037003564a800030037003664a8003a
:10458800010037003764a80000000600674060009b
:10459800e34f50001700320004003e00e14f500086
:1045a8000c0032000f003e0006003700e54f5000b7
:1045b8001800320013003900e64f50001d003a0081
:1045c80018003700802180004300de006140600051
:1045d8001b003700802180004b00de006140600036
:1045e80017003700902180004300de006140600022
:1045f80013003700902180004b00de00614060000e
:104608000f003700a02180004300de0061406000f9
:104618000b003700a02180004b00de0061406000e5
:1046280007003700b02180004300de0061406000d1
:1046380003003700b02180004b00de0061406000bd
:1046480000000600889fbe008a9fbe008c9fbe00a7
:104658006f4060006f426200e7c262000083fb00a7
:10466800860443008984440007442000878444006a
:104678000985e800c333de008783430088412000b2
:10468800888343004234de00080444000b422000c3
:104698000b0444000004a8000104e00008003200f4
:1046a800e38561000b30a000421ede000d002000f3
:1046b800c560dd00818c7500020d780003003700ad
:1046c8004511dd00820c7800000deb0063416000ad
:1046d800210020008110dd008180fb00f200200015
:1046e8000111dd000281ea00180161000482fb006b
:1046f8008120dd00010c71000000d0006e00600018
:104708008580fb008008dd00320020000010dd00fd
:104718000080ea0017006000808b70001000200005
:104728000600dd001424b7000004a9004f06be00ef
:104738004f05be004f04be00000006004200dd0029
:10474800c03fb20005432000050040008082e80019
:104758000004a8000104e0000f003200421bde0044
:1047680007002000f17f200001036300e38061005f
:104778000404e000040032000130a0004533dd00ed
:1047880006887000020037004533dd000108730019
:10479800820a78000b003700f17f200001016100d8
:1047a8000404e000040032004511dd000230a000de
:1047b80002087800020037004511dd000208780081
:1047c800800aeb000004a900000006000165a800ab
:1047d800b05d240090288800100c200080288800f4
:1047e800000006007f406000ef4f500007003600d1
:1047f800704050000080fb00110020000008dd0020
:104808000080ea002225b600050037000080fb0082
:10481800110020000008dd000080ea002025b60015
:10482800000006007f406000ef4f50000700360090
:1048380011298000704050000080fb001200200009
:104848000010dd00014060000500370001298000ec
:104858000080fb00120020000010dd000140600015
:10486800000006002025ef002225ef002825ef0094
:104878002a25ef000000060067406000e34f500063
:104888002f00320004003e00e14f500014003200b7
:104898001f003e0006003700e54f50004000320080
:1048a80033003900e64f500055003a004800370001
:1048b800e1806000c708dd00f0f72f003005b60082
:1048c800008070008029880063016100c0ff2f000c
:1048d8003005b600000071008029880053003700b9
:1048e800cf08dd00f0ff27003005b600008070001b
:1048f80080298800630161004811dd00f0cf2f0096
:104908003005b60000007100802988004700370094
:10491800e1806000c708dd00f0f72f003205b6001f
:10492800008070009029880063016100c0ff2f009b
:104938003205b60000007100902988003b0037005e
:10494800cf08dd00f0ff27003205b60000807000b8
:1049580090298800630161004811dd00f0cf2f0025
:104968003205b60000007100902988002f0037003a
:10497800e1806000c708dd00f0f72f003405b600bd
:1049880000807000a029880063016100c0ff2f002b
:104998003405b60000007100a02988002300370004
:1049a800cf08dd00f0ff27003405b6000080700056
:1049b800a0298800630161004811dd00f0cf2f00b5
:1049c8003405b60000007100a029880017003700e0
:1049d800e1806000c708dd00f0f72f003605b6005b
:1049e80000807000b029880063016100c0ff2f00bb
:1049f8003605b60000007100b02988000b003700aa
:104a0800cf08dd00f0ff27003605b60000807000f3
:104a1800b0298800630161004811dd00f0cf2f0044
:104a28003605b60000007100b029880000000600b5
:104a380067406000e34f50001100320004003e0060
:104a4800e14f50000a0032000b003e00060037001c
:104a5800e54f50000e0032000b003900e64f5000c1
:104a68000f003a000c0037003065a8000d00370031
:104a78003165a8000b0037003265a800090037002f
:104a88003365a800070037003465a8000500370023
:104a98003565a800030037003665a8000100370017
:104aa8003765a8000000060067406000e34f50002b
:104ab8001700320004003e00e14f50000c003200a5
:104ac8000f003e0006003700e54f50001800320086
:104ad80013003900e64f50001d003a001800370057
:104ae800802980004300de00614060001b00370021
:104af800802980004b00de0061406000170037000d
:104b0800902980004300de006140600013003700f8
:104b1800902980004b00de00614060000f003700e4
:104b2800a02980004300de00614060000b003700d0
:104b3800a02980004b00de006140600007003700bc
:104b4800b02980004300de006140600003003700a8
:104b5800b02980004b00de006140600000000600c4
:104b6800889fbe008a9fbe008c9fbe006f40600079
:104b78006f426200e7c262000083fb0086044300c4
:104b88008984440007542000878444000985e8008c
:104b9800c333de00878343008851200088834300a5
:104ba8004234de00080444000b5220000b04440089
:104bb8000005a8000104e00008003200e385610058
:104bc8000b30a000421ede000d002000c560dd0095
:104bd800818c7500020d7800030037004511dd0057
:104be800820c7800000deb0063416000210020007a
:104bf8008110dd008180fb00f20020000111dd0042
:104c08000281ea00180161000482fb008120dd00b6
:104c1800010c71000000d0006e0060008580fb0070
:104c28008008dd00320020000010dd000080ea006e
:104c380017006000808b7000100020000600dd0067
:104c48001425b7000005a9004f06be004f05be0099
:104c58004f04be00000006004200dd00c03fb20065
:104c680005532000050040008082e8000005a800e8
:104c78000104e0000f003200421bde0007002000a4
:104c8800f17f200001036300e38061000404e00079
:104c9800040032000130a0004533dd0006887000b2
:104ca800020037004533dd0001087300820a7800ee
:104cb8000b003700f17f2000010161000404e000cf
:104cc800040032004511dd000230a000020878001f
:104cd800020037004511dd0002087800800aeb0069
:104ce8000005a90000000600771107000000060073
:104cf800881f780000047800284090000074a00005
:104d080020449800180078000000e00004003200f9
:104d180081242000810f500053003a0038003700ea
:104d280050d0bf00a1d22100914f100020003200c6
:104d38000080fb00114178000281fb000201500055
:104d480002f0a7000201ea008180e8009180fb00e0
:104d5800810f51000400340011c0b30040d221007b
:104d68000148780019003700a1d22100914078004d
:104d78008180fb000100500000f0a7000000ea005d
:104d8800b1d221009180fb00810f50000400340053
:104d980011c0b30050d22100014878000b00370041
:104da80011c0b30060d22100014878000700370025
:104db8000040eb0061d22100804878008100e900c2
:104dc800804878008100e90080487800a0d221005e
:104dd800104178000105210082487800171107006a
:104de8003004980041049800401f20000100200072
:104df800500498006104980080242000000c78007a
:104e0800284090000028a3000400320040c0b300ee
:104e18002044980030c0b3001700370058019000b4
:104e2800e801900038009000c8009000350a07009b
:104e38000000e00004003200284090000004a100b7
:104e48002044980003003700284090000004a00088
:104e580020449800a84090000040eb000108a300ff
:104e6800afff32000400370080c0b3002044980030
:104e7800000ceb0030c0b3004f04780000000600bf
:104e88002f50e20004003a0071d2210091417800cd
:104e9800f202210003497800f302210093417800cf
:104ea8008381fb000080fb0071d221009180fb0010
:104eb800818051008180d100808f50000c003d001e
:104ec800110321009140780074d221000104a2004e
:104ed8001481fb00028151000281d100800f510032
:104ee800faff3500014178001003210002487800dc
:104ef8002f70ef0010c0b300000006003050e20031
:104f080004003a0071d22100914178000203210087
:104f18000349780003032100934178008381fb0053
:104f28000080fb0071d221009180fb00838040004b
:104f38008180d100808f50000c003d0011032100ba
:104f48009140780074d221000104a2001481fb0072
:104f5800028141000281d100800f5100faff350023
:104f68000141780010032100024878003070ef00fa
:104f780010c0b30000000600881f780000447800c5
:104f88002e50e20006003a0070d22100104178004d
:104f9800e102210082487800010037003110aa00a0
:104fa80008407800b6ff07000004e000fbff3a0065
:104fb80008407800d1ff07000004e000f7ff3a003e
:104fc8002e70ef0010c0b3004f04780000000600f8
:104fd80090d121001004e00003003a0011c0b30092
:104fe80001487800548ea80000000600a0d12100d6
:104ff8001004e00003003a0011c0b3000148780033
:1050080015cea80000000600b0d121001004e00071
:1050180003003a0011c0b3000148780015eea9005a
:105028000000060090d121001004e00002003200c8
:105038000048eb00548ea90000000600a0d1210012
:105048001004e000020032000048eb0015cea90071
:1050580000000600b0d121001004e0000200320078
:105068000048eb0015eea8000000060013aeab00e8
:1050780004003a0011c0b30060d121000148780053
:105088000200370060d121000048eb000000060054
:10509800138eab0004003a0011c0b30070d1210098
:1050a800014878000200370070d121000048eb0069
:1050b80000000600220ee2000400350011c0b30013
:1050c80080d12100014878000200370080d12100fa
:1050d8000048eb000000060090d121009080fb0002
:1050e8008100e900cf08de0001487800a072800046
:1050f800700060000000e9004f00de004400dd00a1
:10510800f1fe2f00a2728000828060008100700092
:10511800a172880000000600a0d121009080fb0049
:105128008100e900cf08de00014878000000240073
:10513800140eb6000000e9004f00de004e00dd004e
:10514800f1ff2b00a2708000828060008100700057
:10515800a170880000000600b0d121009080fb00fb
:105168008100e900cf08de0001487800a0708000c7
:105178000080ea004f00de004f00dd00f1ff27004d
:10518800a27080008280600081007000a170880099
:105198000000060013aeab0007003a00704a2b006f
:1051a800d1002000d0fe0700b0ff070060d1210029
:1051b8001040780003003700acff070060d12100e1
:1051c8001040780000000600138eab0007003a007c
:1051d800704a2b00d1002000c3fe0700acff070077
:1051e80070d121001040780003003700a8ff0700a5
:1051f80070d121001040780000000600138eab002b
:1052080007003a00704a2b00d1002000b6fe0700c4
:10521800a8ff070080d12100104078000300370064
:10522800a4ff070080d1210010407800000006008c
:1052380060d121001080fb000000e9004f00de0073
:105248000000060070d121001080fb000000e9007a
:105258004f00de000000060080d121001080fb0016
:105268000000e9004f00de0000000600881f7800fb
:1052780000047800284090000074a00020449800a2
:10528800180078000000e00004003200112b200014
:10529800810f5000d4003a00b9003700bdff070065
:1052a8000004e0001200320010c0b30042f0b70062
:1052b800e20f070012ea800023ea8000648280007f
:1052c800758280000400500085805800820f5000cd
:1052d800838f580006003100a050e200040032001d
:1052e80011c0b300f0d1210001487800a070ef0090
:1052f800cfff07000004e000080032004250e2003f
:10530800060032004270ef0010c0b300a0f0b700f2
:10531800ca0f07006082880071828800aaff070010
:105328000004e0001200320010c0b30041f0b700e2
:10533800c20f070032ea800043ea800044828000fe
:10534800558280000400500085805800820f50006c
:10535800838f5800060031009f50e200040032009d
:1053680011c0b30000d22100014878009f70ef00ff
:10537800b4ff07000004e000080032004150e200da
:10538800060032004170ef0010c0b3009ff0b70074
:10539800aa0f0700408288005182880097ff070003
:1053a8000004e0001200320010c0b30040f0b70063
:1053b800a20f070052ea800063ea8000248280007e
:1053c800358280000400500085805800820f50000c
:1053d800838f5800060031009e50e200040032001e
:1053e80011c0b30010d22100014878009e70ef0070
:1053f80099ff07000004e000080032004050e20076
:10540800060032004070ef0010c0b3009ef0b700f5
:105418008a0f07002082880031828800b0e9800066
:10542800c1e98000e00f5000e08f58000e00320004
:10543800820f0700b2e98000c3e98000e4818000a0
:10544800f58180000400500085805800820f5000cc
:10545800838f580004003600780f0700e081880029
:10546800f18188001cff0700d0e98000e1e9800095
:10547800e00f5000e08f58000e0032006f0f070059
:10548800d2e98000e3e98000c4818000d5818000f2
:105498000400500085805800820f5000838f580008
:1054a80004003600650f0700c0818800d18188009c
:1054b80019ff0700f0e9800001ea8000e00f5000c2
:1054c800e08f58000e0032005c0f0700f2e9800000
:1054d80003ea8000a4818000b581800004005000a8
:1054e80085805800820f5000838f580004003600d2
:1054f800520f0700a0818800b181880016ff0700bd
:1055080032d0bf00a1d22100914f10000e0032000e
:10551800914f50000400360011c0b30030d2210072
:10552800014878000300370011c0b30020d22100e1
:1055380001487800a0d22100104178002103210001
:1055480082487800050037000040eb0021d2210096
:10555800804878008100e80080487800370f07000d
:105568003004980041049800a000200001002000a9
:105578005004980061049800102b2000000c78005b
:10558800284090000028a3000400320040c0b30067
:105598002044980030c0b30017003700580190002d
:1055a800e801900038009000c800900055080700f6
:1055b8000000e00004003200284090000004a10030
:1055c8002044980003003700284090000004a00001
:1055d80020449800a84090000040eb000108a30078
:1055e8002eff32000400370080c0b300204498002a
:1055f800000ceb0030c0b3004f0478000000060038
:105608000040eb00f1d121001104e000030032005a
:10561800010078000048eb0010c0b300000006004d
:105628000040eb0001d221001104e0000300320029
:10563800010078000048eb0010c0b300000006002d
:105648000040eb0011d221001104e00003003200f9
:10565800010078000048eb0010c0b300000006000d
:105668005bfe07000000060060fe07000000060061
:1056780065fe070000000600b0e98000c1e980006f
:10568800e00f5000e08f58000300320060d3210083
:105698000008eb003010780062fe070000000600ea
:1056a800d0e98000e1e98000e00f5000e08f580069
:1056b80003003200a0d321000008eb00301078006e
:1056c8005efe070000000600f0e9800001ea8000a5
:1056d800e00f5000e08f580003003200e0d32100b3
:1056e8000008eb00301078005afe070000000600a2
:1056f80079fe07000000060087fe0700000006008c
:1057080095fe070000000600b0e98800c1e988009e
:1057180000000600d0e98800e1e9880000000600e2
:10572800f0e9880001ea88000000060028fe07006a
:10573800000006002dfe07000000060032fe0700ec
:105748000000060037fe0700000006003bfe0700c9
:10575800000006003ffe07000000060010ea88006f
:1057680021ea88000000060030ea880041ea880043
:105778000000060050ea880061ea88000000060080
:10578800b1d221008048780000000600c1d2210073
:105798008048780000000600a0d221001080fb009d
:1057a8000000060070ea80000000060010c0b30088
:1057b80031d221001104e00002003a000100e900a2
:1057c800104078000000060060d2210010407800e8
:1057d8000000060050d221001040780000000600aa
:1057e80040d22100104078000000060020d221009d
:1057f800104078000000060030d2210010407800e8
:1058080000000600e14f50000c003200050039008e
:10581800e24f500016003200e34f500019003a00e2
:105828000d003700e1cf50001800320010c0b3005f
:10583800e2cf500014003a0016003700e3cf5000c2
:105848001600320000c1eb0010c0b3000104e000f4
:105858000d003a0016003700e2cf50001100320068
:1058680010c0b300e1cf500007003a000f00370026
:1058780012c0b3000104e0000d00320002407800bd
:105888000100370010c0b3000000060012c0b300ca
:105898000700370000c1eb000500370012c0b30055
:1058a8000300370012c0b3000100370000c1eb004d
:1058b800a0d22100104841000040eb00f2ff370061
:1058c800889fbe0091708000927080004911de00b0
:1058d80061416100c708de00e280600070d22100eb
:1058e800014871008000e8009140780090cf500096
:1058f800080032008004e80099407800000478002d
:1059080018407800bfff07008880e80080487800ca
:10591800984c78004f04be00000006001faea90096
:1059280011aea8001baea9001daea9001baea800b1
:105938000000060021eea8002beea9002deea9001c
:105948002beea800000006001f8ea900118ea800eb
:105958001b8ea9001d8ea9001b8ea8000000060042
:105968001f0ea900110ea8001b0ea9001d0ea900ec
:105978001b0ea8001f2ea900112ea8001b2ea9007f
:105988001d2ea9001b2ea80000000600508ea9009d
:10599800568ea9005a8ea9005c8ea9001fcea900b8
:1059a80011cea9001bcea9001dcea9001feea9008b
:1059b80011eea9001beea9001deea900d7ff0700f4
:1059c800dcff0700e0ff0700e5ff0700b003200049
:1059d80001002000c4fc070071d221000040eb0048
:1059e800804878000101e80011497800e380400010
:1059f80080487800f1805000804878008100e800f5
:105a08008048780011c0b3006d005100014878004b
:105a1800401f20000100200050ff0700401f200009
:105a28000100200050ff0700401f20000100200057
:105a380050ff0700a0c0b30054ff070050c0b300d8
:105a48004fff0700a0932200be050700c067220091
:105a5800bc05070073fd070078fd07007dfd070002
:105a680082fd07008afd070092fd0700a2002000c2
:105a78000300200040c6220060070700000006005f
:105a88000200fa00881f780000047800284090007f
:105a98000074a0002044980018007800c10f20006e
:105aa800810f5000070032008100e800810f50008c
:105ab8001d0032000000e00049003a00c00f20003d
:105ac800000c7800284090000028a3000400320051
:105ad80040c0b3002044980030c0b30044003700f1
:105ae800418380000138a30003003a000004a100ac
:105af80020449800020037000004a00020449800c9
:105b0800284190000040eb000208a30038003a004a
:105b18000130a0004183880060c621000008eb0026
:105b2800d00f2000000c7800284090000028a30027
:105b38000400320040c0b3002044980030c0b300d5
:105b48002b00370012c0b300e480570060c6210064
:105b58007f040700e24f5000040036002840900000
:105b68000004a1002044980003003700284090005a
:105b78000004a00020449800a84090000040eb00da
:105b88000108a3001a003a006870a9004ff89700ae
:105b9800ed4f50000d003a0040e1290088f307005e
:105ba800e0e1290086f3070090e32900801f7800d0
:105bb8007ff4070090e4290081f3070020e829001a
:105bc8007ff307008f87e900bcff370040e8290012
:105bd800801f780076f407008f87e900b7ff370049
:105be80080c0b30020449800000ceb0030c0b30024
:105bf8004f0478000080fa0000000600881f780033
:105c080000047800284090000074a0002044980008
:105c1800180078000000e00004003200310f200076
:105c2800810f500032003a001700370059fd070075
:105c38000004e0000400320060088000600888006a
:105c48000000e800600888005ffd07000004e0002d
:105c58000400320060088000600888000000e90045
:105c680060088800750d070030049800410498000a
:105c7800a00f200001002000500498006104980043
:105c8800300f2000000c7800284090000028a30066
:105c98000400320040c0b3002044980030c0b30074
:105ca8001700370058019000e80190003800900074
:105cb800c8009000930607000000e00004003200ce
:105cc800284090000004a1002044980003003700f9
:105cd800284090000004a00020449800a8409000ac
:105ce8000040eb000108a300d0ff32000400370099
:105cf80080c0b30020449800000ceb0030c0b30013
:105d08004f04780000000600881f7800000478001f
:105d1800284090000074a0002044980018007800e3
:105d28000000e00004003200510e2000810f5000f6
:105d3800c2003a00a700370055d0bf00e34f50001b
:105d480005003a0021062100914078003206210022
:105d58000149780096003700e54f500005003a00e9
:105d680062d0bf00004040006350b70063f0b70046
:105d78008f003700e74f500005003a0062d0bf009f
:105d88000080fb004200dd006370b7008800370028
:105d9800e94f500005003a0062d0bf000080fb00c8
:105da8004300dd006370b70081003700ed4f5000fd
:105db8000f003a0062d0bf000080fb004400dd0005
:105dc8006370b700a07080004e00de000080ea001b
:105dd800610060004e00dd00f1ff2b00a270800022
:105de8008280600081007000a17088007000370018
:105df800ef4f500005003a0062d0bf000080fb0062
:105e08004500dd006370b70069003700f14f5000ae
:105e180005003a0062d0bf000080fb004600dd00ac
:105e28006370b70062003700f54f500005003a0074
:105e3800210621009140780042062100014978009e
:105e48005b003700f74f500005003a0062d0bf00f2
:105e5800004040006450b70064f0b70054003700b9
:105e6800f94f500005003a0062d0bf000080fb00e7
:105e78004200dd006470b7004d003700fb4f500052
:105e880005003a0062d0bf000080fb004300dd003f
:105e98006470b70046003700fd4f500005003a0017
:105ea80062d0bf000080fb004400dd006470b700d2
:105eb8003f00370011c2b300814f500005003a007f
:105ec80062d0bf000080fb004500dd006470b700b1
:105ed8003700370031c2b300814f500005003a0047
:105ee80062d0bf000080fb004600dd006470b70090
:105ef8002f00370091c2b300814f500005003a00cf
:105f080021062100914078005206210001497800bd
:105f180027003700b1c2b300814f500005003a0096
:105f280062d0bf00004040006550b70065f0b70080
:105f38001f003700d1c2b300814f500005003a005e
:105f480062d0bf000080fb004200dd006570b70032
:105f580017003700f1c2b300814f500005003a0026
:105f680062d0bf000080fb004300dd006570b70011
:105f78000f00370031c3b300814f500005003a00cd
:105f880062d0bf000080fb004400dd006570b700f0
:105f98000700370051c3b300814f500004003a0096
:105fa80062d0bf000080fb004500dd006570b700cf
:105fb800a20c07003004980041049800100020004b
:105fc800010020005004980061049800500e200041
:105fd800000c7800284090000028a300040032003c
:105fe80040c0b3002044980030c0b3001700370009
:105ff80058019000e801900038009000c800900017
:10600800c00507000000e0000400320028409000ae
:106018000004a100204498000300370028409000a5
:106028000004a00020449800a84090000040eb0025
:106038000108a30040ff32000400370080c0b3000d
:1060480020449800000ceb0030c0b3004f047800e7
:1060580000000600809fbe00829fbe000268a90063
:10606800b2828000c38280005ad0bf000040510035
:1060780054f0b700e64f50000d003600f082800063
:10608800018380000000510081805900f30f500007
:10609800e08f580003003e0010c0b30055f0b70071
:1060a80052f0b700f2828800038388000f0037009f
:1060b800e4405000e2cf500006003e0010c0b3009c
:1060c80062f0b7005250e200080032005570ec0050
:1060d80006003700e34f500004003e006270ef00f6
:1060e8005250e200010032005570ec00b08280008e
:1060f800c1828000d0828800e18288004f01be0002
:106108004f00be0000400600000120008008880003
:10611800b0d421006008880000e8a90011e1a800b7
:1061280000000600809fbe00829fbe00f0f72f008f
:106138000028b600b2828000c3828000610141005d
:10614800e0814900b2828800c382880001082000eb
:10615800a3718000838060008100e900cf08de0021
:10616800c708dd00340eb60000807000a0718800fa
:106178004f01be004f00be0000400600e14f500036
:1061880003003a00100320000bf207008e003700ce
:10619800e24f500003003a003003200006f20700e7
:1061a80089003700e44f500003003a004003200004
:1061b80001f2070084003700e54f500003003a0061
:1061c80050032000fcf107007f003700e64f500025
:1061d80003003a0060032000f7f107007a00370057
:1061e800e74f500003003a0070032000f2f1070067
:1061f80075003700e84f500003003a008003200084
:10620800edf1070070003700e94f500003003a0035
:1062180090032000e8f107006b003700ea4f5000b8
:1062280005003a0070e82900801f7800e0f20700b6
:106238008f87e90064003700eb4f500005003a00f3
:10624800a0e82900801f7800d9f207008f87e900ad
:106258005d003700ec4f500005003a00d0e82900f7
:10626800801f7800d2f207008f87e90056003700b8
:10627800ed4f500005003a0000e92900801f780022
:10628800cbf207008f87e9004f003700ee4f500030
:1062980005003a0030e92900801f7800c4f20700a1
:1062a8008f87e90048003700ef4f500005003a009b
:1062b80060e92900801f7800bdf207008f87e90098
:1062c80041003700f04f500005003a0090e92900de
:1062d800801f7800b6f207008f87e9003a00370080
:1062e800f14f500005003a00c0e92900801f7800ee
:1062f800aff207008f87e90033003700f24f5000f4
:1063080005003a00f0e92900801f7800a8f207008c
:106318008f87e9002c003700f34f500005003a0042
:1063280020ea2900801f7800a1f207008f87e90082
:1063380025003700f44f500005003a0050ea2900c4
:10634800801f78009af207008f87e9001e00370047
:10635800f54f500005003a0080ea2900801f7800b8
:1063680093f207008f87e90017003700f64f5000b7
:1063780005003a00b0ea2900801f78008cf2070077
:106388008f87e90010003700f74f500005003a00ea
:10639800e0ea2900801f780085f207008f87e9006e
:1063a80009003700f84f500005003a0010eb2900ab
:1063b800801f78007ef207008f87e900020037000f
:1063c800000320007cf1070000000600889fbe0043
:1063d80000047800284090000074a0002044980031
:1063e800180078000000e00004003200c109200015
:1063f800810f500046003a002b0037005350e2004e
:106408002000320040eb2900801f780068f2070066
:1064180009cfb30065d0bf000940600057ff0700ef
:1064280065d0bf006f40600054ff0700b0eb290043
:10643800801f78005ef2070064d0bf00094060004a
:106448004eff070064d0bf006f4060004bff07009d
:1064580060ec2900801f780055f2070063d0bf0068
:106468000940600045ff070063d0bf006f4060002f
:1064780042ff070010ed2900801f78004cf207004a
:10648800e88757006d0b0700300498004104980016
:106498004006200001002000500498006104980084
:1064a800c0092000000c7800284090000028a300b4
:1064b8000400320040c0b3002044980030c0b3004c
:1064c8001700370058019000e8019000380090004c
:1064d800c80090008b0407000000e00004003200b0
:1064e800284090000004a1002044980003003700d1
:1064f800284090000004a00020449800a840900084
:106508000040eb000108a300bcff32000400370084
:1065180080c0b30020449800000ceb0030c0b300ea
:106528004f04be00000006003eeea90030eea900b0
:106538003aeea9003ceea90034eea8005470ef0032
:106548005570ef005630ef005830ef005a30ef002a
:106558005c30ef006270ef006370ef006470ef0072
:106568006570ef005e30ef006030ef00548ea900d8
:106578000268a9004042800000c0a00000d0a1002d
:1065880000e0a100404288002268a800fffc070044
:10659800304ea800364ea9003a4ea9003c4ea9003c
:1065a8003a4ea800384ea800d7fe070020e8a900f8
:1065b80020842000f1ff24001088600001002400de
:1065c8001088400020e8a80040d42200dd0207001f
:1065d80020e02200db02070080e82200d902070041
:1065e800a01e2300d7020700401f20000100200042
:1065f8004bfc0700000006000000210041bd2100ff
:10660800010878008000eb00110098002100980034
:1066180002042000320098008000210043c12100bc
:1066280003087800110098002100980032009800b3
:10663800c6090700000006000080fb004400de00d9
:10664800e94f5000020036007043b00001003700e7
:106658000043b000000006006f406000e94f5000a2
:10666800020036007043b000010037000043b0005c
:1066780000000600881f7800000478002840900079
:106688000074a00020449800180178000200e0007f
:106698000400320031052000810f510027003a0024
:1066a8000c00370081417800b202210003497800cc
:1066b800118080008100e8006181880002042000c8
:1066c800828f500001003a002c30ef003105200085
:1066d800010c78000028a3000400320040c0b30079
:1066e8002044980030c0b300180037006181800052
:1066f80022808000810f5100030032000004a100b5
:1067080020449800020037000004a00020449800ac
:10671800284190000040eb000208a3000b003a005b
:106728000000210010814000b3022100934178004d
:1067380003497800110098003409070080c0b300ad
:1067480020449800000ceb0030c0b3004f047800e0
:1067580000000600889fbe0000047800814478008d
:10676800284090000074a000204498001800780089
:106778000000e00004003200a1062000810f500054
:106788003f003a001900370001c3b30080c8210058
:106798000148780081c7b3000000e800014878008c
:1067a80009407800a4ff0700a1c8210080487800ac
:1067b80009407800a8ff0700b1c821008048780088
:1067c8000100e8000048eb002a70ef000210ec001e
:1067d8004081880001042000810f500001003a0028
:1067e8002830ef00a0062000000c78002840900018
:1067f8000028a3000400320040c0b30020449800e1
:1068080030c0b30022003700418180002280800020
:10681800810f5100030032000004a10020449800b9
:10682800020037000004a00020449800284190008e
:106838000040eb000208a30015003a000000210008
:1068480090814000a2022100124178000282fb00e0
:1068580085c8210004824200944978000241e8007a
:1068680002427800a30221008449780011009800b0
:10687800e60807002ad0bf00e34f5000d3ff3600d8
:1068880080c0b30020449800000ceb0030c0b30077
:106898004f04be0000000600881f7800000478003e
:1068a80081427800284090000074a000204498009d
:1068b800180078000000e0000400320041082000c1
:1068c800810f500063003a003d0037002670ef004a
:1068d80030c6b30080cf5200090036000580fb00a7
:1068e80042062000110009000280d80033c82100a8
:1068f80002c3b3008249400010c0b30026f0b700bd
:10690800e9cf5200130036006602210016437800d2
:106918000681fb0034c82100020242008581fb0089
:1069280042062000110009008281d8008101780008
:106938008381fb00a2002000110009008281d80099
:106948000001780003c3b300034a41000640e80091
:1069580026f0b70062022100124178000282fb0093
:1069680036c82100040243008580fb00a3002000f4
:10697800110009008380d80003c3b30003ca400094
:106988008240e80064022100014a78008180fb000f
:10699800010043000048eb002770ef002a00370091
:1069a8000210ec002081880001042000810f5000b3
:1069b80001003a002430ef0040082000000c780065
:1069c800284090000028a3000400320040c0b30013
:1069d8002044980030c0b300220037002181800095
:1069e80022808000810f5100030032000004a100c2
:1069f80020449800020037000004a00020449800ba
:106a0800284190000040eb000208a30015003a005e
:106a1800000021009081400072022100124178009c
:106a28000282fb0035c821000482420094497800a4
:106a38000241e8000242780073022100844978008c
:106a4800110098007108070027d0bf002650e30006
:106a5800d3ff3e0080c0b30020449800000ceb0038
:106a680030c0b3004f04780000000600889fbe00c5
:106a78008a9fbe008c1f7800000678000204be00c2
:106a88002c4090000074a000204698001c0078005c
:106a98000000e00004003200410a2000810f50008d
:106aa8005f003a003900370001c3b30080c72100f6
:106ab8000148780081c7b3000000e8000148780069
:106ac800481dde000b0020000a407800dafe0700af
:106ad800a1c72100804878000a407800defe070040
:106ae800b1c7210080487800404dde000b0020002f
:106af8000a407800d0fe0700c1c72100804878000e
:106b08000a407800d4fe0700d1c7210080487800e9
:106b1800c84dde004848dd004845de000a05700023
:106b28000a407800c4fe0700e1c7210080487800c9
:106b38000a407800c8fe0700f1c7210080487800a5
:106b480008407800bcfe070001c821008048780092
:106b580008407800c0fe070011c82100804878006e
:106b68000100e8000048eb002270ef000210ec0082
:106b78000081880001042000810f500001003a00c4
:106b88002030ef00400a2000000e78002c409000d2
:106b98000028a3000400320040c0b300204698003b
:106ba80030c0b300220037000181800022808000bd
:106bb800810f5100030032000004a1002046980014
:106bc800020037000004a000204698002c419000e5
:106bd8000040eb000208a30015003a000000210065
:106be8009081400022022100124178000282fb00bd
:106bf80085c7210004824200944978000241e800d8
:106c0800024278002302210084497800110098008c
:106c1800fe07070022d0bf00e94f5000d3ff36001f
:106c280080c0b30020469800000eeb0030c0b300cf
:106c38004f0678004f05be004f04be000000060056
:106c4800881f780000047800284090000074a00095
:106c580020449800180078000000e000040032008a
:106c6800910b2000810f500033003a000e003700ce
:106c780082417800c001210003487800d180880053
:106c88001d70ef002a0037000210ec00f080880029
:106c980001042000810f500001003a001e30ef006f
:106ca800900b2000000c7800284090000028a300da
:106cb8000400320040c0b3002044980030c0b30044
:106cc80021003700f180800024808000810f52006d
:106cd800030032000004a10020449800020037009d
:106ce8000004a00020449800284190000040eb00d8
:106cf8000208a30014003a0002002100128240009a
:106d0800d3012100934178000380fb001a10b400de
:106d1800104a78008341e80003427800d00121003e
:106d28000448780011019800b80707001c70ed00ae
:106d38001c50e200d4ff3a0080c0b3002044980001
:106d4800000ceb0030c0b3004f04780000000600d0
:106d5800a04190000374a00023409800900178009f
:106d68000300e00004003200d40c2000848f51009e
:106d780034003a00070037005301210082497800a7
:106d8800b18088001870ef002a003700d30c20006b
:106d980003087800a04190000328a30004003200f3
:106da80041c0b3002140980033c0b3002900370028
:106db800840021009402900024029000848f5200e5
:106dc800030032000304a1002340980002003700aa
:106dd8000304a00023409800204290008041eb006b
:106de8000408a3001b003a000c30ec000304200048
:106df80065808000838f520001003a000c30ef005c
:106e080083012100934178008400210094027800d6
:106e180024029000848242000382fb000482400026
:106e2800154a78008341e8008342780084012100f4
:106e3800054a7800830121009341780082cf5100f0
:106e4800d2ff390081c0b300214098000008eb0050
:106e580033c0b300034078000000060020419000d2
:106e68000274a00022409800100178000200e0009f
:106e780004003200e30d2000830f51003a003a006d
:106e8800030037001470ef00e20d200002087800bc
:106e9800204190000228a3000400320041c0b30042
:106ea8002140980032c0b30033003700830021002e
:106eb80013029000a3019000830f520003003200d8
:106ec8000204a10022409800020037000204a0003a
:106ed80022409800a04190000041eb000308a30065
:106ee80025003a000c30ec0002042000638080008a
:106ef800828f510001003a000c30ef00430121005d
:106f0800934178008200210012027800220190004b
:106f180002014200124178000382fb000482400013
:106f2800024a7800ea4f51000a003200ed4f510042
:106f3800080032000204e000060032008341e80045
:106f480044012100034a7800e2c3b30082cf510014
:106f5800cdff360042012100124178000281fb007a
:106f6800828040008048eb0081c0b3002140980037
:106f78000008eb0032c0b3000240780000000600b1
:106f8800881f780000047800284090000074a00052
:106f980020449800180078000000e0000400320047
:106fa800210f2000810f500029003a000a00370005
:106fb80081808800230037000210ec009080880050
:106fc80001042000810f500001003a001230ef0048
:106fd800200f2000000c7800284090000028a30013
:106fe8000400320040c0b3002044980030c0b30011
:106ff8001b0037009180800022808000810f5100a3
:10700800030032000004a100204498000200370069
:107018000004a00020449800284190000040eb00a4
:107028000208a3000e003a000200210092814000ed
:1070380080808000b0497800808088001101980025
:10704800f2060700808080001004e000daff3a00b2
:1070580080c0b30020449800000ceb0030c0b3009f
:107068004f04780000000600804178000210ec0010
:1070780001042000810f500001003a000000eb00dd
:107088000410e300feff320001002100110140005e
:107098000349780090009800dc060700000006000d
:1070a800889fbe008a1f7800904078000104e000a5
:1070b8001100320000047800090420000005eb00ec
:1070c8000210ec00890f500001003a000a00780015
:1070d8000410e300feff320002002100920140008c
:1070e8008149780010019800c8060700d840780048
:1070f8000104e000f2ff3a004f0578004f04be009b
:107108000000060080002100900090002000900000
:10711800808f5000fbff32000c30ec000004200090
:107128000c10e30001003a000c30ef008000210051
:107138009000780020009000008040001040780007
:107148000000060080007800a30621009341780023
:107158000000eb00efcf510058003e0045c380000f
:10716800818f520014003200a48721000043eb00f5
:10717800064078000641780017c0b30004003700c5
:107188009402780072024200818f52000c00320093
:107198000604e00004003a000500e00002003a009e
:1071a80002407800074378000241e800f04f5100a0
:1071b800f3ff3a00420037000040eb00004178003e
:1071c8008280fb0044862100f20bb900860342004e
:1071d8008002eb00850b78008483e80086834300f7
:1071e800854b780006034200060b900016037800d2
:1071f800250398008382fb004698210085024300fe
:10720800824a78008341e80083427800a206210080
:10721800054978000080fb00f201b9000202420033
:10722800740190000200e00007003a0062838000c9
:107238000201e80062838800f200b9002387210078
:107248000300400002087800f208b90041862100d6
:1072580001004000190037004486210022c1b30014
:107268000440bc0082024200a10298008000eb00aa
:10727800810a78000483e80002034300014b780088
:107288000509900012017800210198008380fb0015
:107298004298210081004100804878008341e8003d
:1072a80083407800a0062100014878006c10ec00ab
:1072b80060838800f002980005007800000006004e
:1072c8000604e000e4ff3a000000eb00fbff370093
:1072d80000037800a4062100144278000040eb0067
:1072e8000404e00018003200339821008000eb000d
:1072f800478621005340780000c1e800e14f510063
:107308000d00360022c1b3000440bc0002804300d7
:1073180020009000860f500007003a004098210096
:1073280081024000e0cfb300804a78006810a800ce
:1073380010c0b300040037008100e800814f5200fc
:10734800ecff3e000040eb00000006000003780060
:10735800a5062100954278000000eb000504e00036
:1073680011003200339821008040eb004486210050
:107378005340780000c1e800e14f51000600360094
:1073880022c1b3000440bc00040041002001900069
:10739800860f5100040032008140e80085cf50007c
:1073a800f3ff39000000eb0000000600000378003e
:1073b800a5062100954278000000eb000504e000d6
:1073c80011003200339821008040eb0044862100f0
:1073d8005340780000c1e800e14f51000600360034
:1073e80022c1b3000440bc000400410070019000b9
:1073f800860f5100040032008140e80085cf50001c
:10740800f3ff39000000eb0000000600a0cc80006c
:107418000000e00005003200619a21001000200001
:107428001100e00006003a00010037000000eb0000
:10743800f200b90041992100010040000500370021
:107448000000e800f2804000f00f5000f4ff3a001e
:107458000000eb000000060090838800a1838800ec
:107468000000060090838000a183800092e52b0035
:10747800828ab900661a24008683b900060242008f
:107488000201b80083014200400ade000500200026
:10749800711a240081abb9000120b80081004300b3
:1074a800cf0ade00410bdd004f02de00040273004c
:1074b800040141008581490000f0a1008000eb0033
:1074c800c002dd00040020000200420083804a0060
:1074d80004003b00120020000300280000004100c7
:1074e8008180490090838800a183880000000600fd
:1074f800889fbe008100400052dc2900c31128008b
:10750800810f500020003100c812dd000400200067
:107518000204410083844900441bdd00cc13de00d3
:10752800870373004413dd000804430089844b007b
:107538000804410089844900471bdd00c913de00a7
:10754800870373004713dd000804430089844b0058
:10755800481bdd00c813de00870373004813dd00f5
:107568000801430089814b000201420083814a00df
:107578003082fb008002eb0004016900858169000c
:10758800808f5000e0ff3e00028169000200780011
:107598004f04be000000060081004000810f50002b
:1075a80026003100d2848000e38480000203410079
:1075b80083834900441add00cc12de008502720084
:1075c8004412dd000602420087824a00040241009c
:1075d80085824900471bdd00c913de00870373005d
:1075e8004713dd000402430085824b00481bdd0081
:1075f800c813de00870373004813dd00040243004c
:1076080085824b00c811dd00020020000401410002
:1076180085814900d2848800e38488003082fb0099
:107628008002eb000401690085816900d28488002a
:10763800e3848800808f5000daff3e00d084800009
:10764800e1848000000006001004e00026003200fb
:10765800d2848000e38480000203410083834900d0
:10766800441add00cc12de00850272004412dd00ef
:107678000602420087824a000402410085824900ce
:10768800471bdd00c913de00870373004713dd00c5
:107698000402430085824b00481bdd00c813de004e
:1076a800870373004813dd000402430085824b0002
:1076b800c811dd0002002000040141008581490055
:1076c800d2848800e38488001082fb008002eb00eb
:1076d8000401690085816900d2848800e3848800f8
:1076e8005004e000daff3a00d0848000e184800092
:1076f80000000600008068000000060000c1b3001a
:1077080000000600889fbe008a9fbe000004be00dd
:107718000205be00c906070008015000898158000b
:10772800880f5000898f5800020031006101510014
:10773800e0815900100020008a0f51008b8f5900fa
:1077480001003e000000eb004f05be004f04be00e4
:1077580000000600889fbe008a9fbe00e90621003f
:10776800994478000904e000210032000044eb004d
:107778001b0020004aab21000880fb008058dd0078
:10778800828380008100610015003200ea02b9009e
:10779800e6004200810045000083eb008083eb0097
:1077a80031014300a1814b000402450032029800d8
:1077b80043029800e00f5100e08f590007003a009b
:1077c8008400780011019000a1019000b200980097
:1077d800c300980011007800000001008944e90006
:1077e8000904e000020032000844e800e2ff370024
:1077f8004f05be004f04be0000000600889fbe0073
:107808008a9fbe000205be00e9062100994478005f
:1078180080c2eb00efcf540021003e008683800039
:107828000608a300090032008000eb0017002000c2
:107838008142e8008100e800010478008139dd0018
:107848000682610013003a0003003700130020008d
:107858000004eb008042eb00ea44b90041ab210090
:107868000884400088007800801878008a88be0064
:107878003a0498004b0498008944e800894078004d
:10788800e00621000148780003037300868388001e
:1078980003003700ef8f5000e5ff3a0080c2eb008d
:1078a800054078004f05be004f04be0000000600ea
:1078b8008081fb00120020000311dd00818380001d
:1078c800010261000040eb0009003200ea18b9002b
:1078d80043ab2100808141008009eb006e70ed0010
:1078e8000281ea00010061008083880010c0b300b3
:1078f8000000060000037800e306210093417800a9
:1079080000c0eb000304e000120032008583800011
:107918000040eb001400200047ab21008080fb00f2
:107928000121dd000501610005003200ea09b90006
:1079380082804300910f1300060032008341e90062
:107948000304e000020032000040e800f3ff3700c3
:1079580000c0eb00000006000202be008080fb00b1
:10796800130020008119dd008083800083016000fe
:107978000040eb0005003200ea08b90062ab2100c4
