:020000040000fa
:080000000013040000000000e1
:020000040000fa
:1000080002100000061000000a1000000e10000088
:1000180012100000161000001a1000001e10000038
:1000280022100000261000002a1000002e100000e8
:1000380032100000361000003a1000003e10000098
:1000480042100000461000004a1000004e10000048
:1000580052100000561000005a1000005e100000f8
:1000680062100000661000006a1000006e100000a8
:1000780072100000761000007a1000007e10000058
:1000880082100000861000008a1000008e10000008
:1000980092100000961000009a1000009e100000b8
:1000a800a2100000a6100000aa100000ae10000068
:1000b800b2100000b6100000ba100000be10000018
:1000c800c2100000c6100000ca100000ce100000c8
:1000d800d2100000d6100000da100000de10000078
:1000e800e2100000e6100000ea100000ee10000028
:1000f800f2100000f6100000fa100000fe100000d8
:1001080002110000061100000a1100000e11000083
:1001180012110000161100001a1100001e11000033
:1001280022110000261100002a1100002e110000e3
:1001380032110000361100003a1100003e11000093
:1001480042110000461100004a1100004e11000043
:1001580052110000561100005a1100005e110000f3
:1001680062110000661100006a1100006e110000a3
:1001780072110000761100007a1100007e11000053
:1001880082110000861100008a1100008e11000003
:1001980092110000961100009a1100009e110000b3
:1001a800a2110000a6110000aa110000ae11000063
:1001b800b2110000b6110000ba110000be11000013
:1001c800c2110000c6110000ca110000ce110000c3
:1001d800d2110000d6110000da110000de11000073
:1001e800e2110000e6110000ea110000ee11000023
:1001f800f2110000f6110000fa110000fe110000d3
:1002080002120000061200000a1200000e1200007e
:1002180012120000161200001a1200001e1200002e
:1002280022120000261200002a1200002e120000de
:1002380032120000361200003a1200003e1200008e
:1002480042120000461200004a1200004e1200003e
:1002580052120000561200005a1200005e120000ee
:020000040000fa
:102000000200000006140400000000000614040092
:102010000000000006140400000000000614040084
:102020000000000006140400000000000614040074
:102030000000000006140400000000000614040064
:102040000000000006140400000000000614040054
:102050000000000006140400000000003c6c0400b6
:102060000000000006140400000000000614040034
:102070000000000006140400000000000614040024
:102080000000000006140400000000000614040014
:102090000000000006140400000000009c69040019
:1020a0000000000070690400000000000614040035
:1020b00000000000061404000000000006140400e4
:1020c00000000000061404000000000006140400d4
:1020d00000000000061404000000000006140400c4
:1020e00000000000061404000000000006140400b4
:1020f00000000000061404000000000006140400a4
:102100000000000006140400000000000614040093
:102110000000000006140400000000000614040083
:102120000000000006140400000000000614040073
:102130000000000006140400000000000614040063
:102140000000000006140400000000000614040053
:102150000000000006140400000000000614040043
:102160000000000006140400000000000614040033
:102170000000000006140400000000000614040023
:102180000000000006140400000000000614040013
:102190000000000006140400000000000614040003
:1021a00000000000061404000000000006140400f3
:1021b00000000000061404000000000006140400e3
:1021c00000000000061404000000000006140400d3
:1021d00000000000061404000000000006140400c3
:1021e00000000000061404000000000006140400b3
:1021f00000000000061404000000000006140400a3
:102200000000000006140400000000000614040092
:102210000000000006140400000000000614040082
:102220000000000006140400000000000614040072
:102230000000000006140400000000000614040062
:102240000000000006140400000000000614040052
:102250000000000006140400000000000614040042
:102260000000000006140400000000000614040032
:102270000000000006140400000000000614040022
:102280000000000006140400000000000614040012
:102290000000000006140400000000000614040002
:1022a00000000000061404000000000006140400f2
:1022b00000000000061404000000000006140400e2
:1022c00000000000061404000000000006140400d2
:1022d00000000000061404000000000006140400c2
:1022e00000000000061404000000000006140400b2
:1022f00000000000061404000000000006140400a2
:102300000000000006140400000000000614040091
:102310000000000006140400000000000614040081
:102320000000000006140400000000000614040071
:102330000000000006140400000000000614040061
:102340000000000006140400000000000614040051
:102350000000000006140400000000000614040041
:102360000000000006140400000000000614040031
:102370000000000006140400000000000614040021
:102380000000000006140400000000000614040011
:102390000000000006140400000000000614040001
:1023a00000000000061404000000000006140400f1
:1023b00000000000061404000000000006140400e1
:1023c00000000000061404000000000006140400d1
:1023d00000000000061404000000000006140400c1
:1023e00000000000061404000000000006140400b1
:1023f00000000000061404000000000006140400a1
:102400000000000006140400000000000614040090
:102410000000000006140400000000000614040080
:102420000000000006140400000000000614040070
:102430000000000006140400000000000614040060
:102440000000000006140400000000000614040050
:102450000000000006140400000000000614040040
:102460000000000006140400000000000614040030
:102470000000000006140400000000000614040020
:102480000000000006140400000000000614040010
:102490000000000006140400000000000614040000
:1024a00000000000061404000000000006140400f0
:1024b00000000000061404000000000006140400e0
:0424c0000000000018
:020000040000fa
:10260000ef1922000eff27000e01880000000000d5
:10261000000020000000e000020032000001200065
:10262000200288000c000700a054260001002000b2
:102630000f000700000020000000e0000200320050
:102640000000020000000000aa5c02000000000080
:102650000040da000000fe00400820000000e0001a
:1026600002003200002020009001880000000600d7
:10267000a1028800800078000000eb001a003700fb
:10268000e280400054a0b4009101ba00e280400012
:1026900054a0b4009102ba00e280400054a0b400fb
:1026a0000002eb00472bde00f507b200a601880010
:1026b000602ce10008003a000049eb000201e8004c
:1026c000020039003420ec0002f0a0008301e90090
:1026d000f9ff3e00040037006128e10001003200ec
:1026e0000082eb00040007001101ba000200e000c4
:1026f000e3ff3a000000060004d0a300e20f490007
:102700001c003900810278003549ba000201e80056
:10271000020039003420ec0002f0a0008301e9003f
:102720000f0032002549ba000201e800020039001a
:102730003420ec0002f0a0008301e9000800320020
:102740000400e0000600320015c9ba000201e800ea
:10275000020039003420ec0002f0a0008301e900ff
:102760008180e80054a0b4000300e000e2ff3a00da
:10277000000006009102ba00055978008301e900c3
:10278000f7ff3200c82ade00055978008301e9000e
:10279000f3ff32000400e000f1ff320011d9ba006b
:1027a000eeff3700046804000000000050490400f8
:1027b0000000000092460400000000007a4c040073
:1027c000000000008460040000000000a831040044
:1027d00000000000da3b0400000000003c3504006b
:1027e000000000008c370400000000003e3a0400a6
:1027f0000000000084190400000000004e200400c6
:102800000000000000000400000000000040da00aa
:102810000000fe000a00fa0011002000b1bf9f0076
:10282000c0bf9f006a805700d30607004fb89700cb
:102830000080fa00000006000a00fa00e20f5000d3
:1028400020003e00b0098100e10f50000600320078
:102850008023200045232000232320000423200080
:102860000000e00004003a00802220004522200001
:102870002322200004222000060028001403630005
:1028800003003a000608780000002800140a7000cf
:1028900013a8a30001003a0013a0a00002007800d2
:1028a000050037001388a300feff32003102fb0051
:1028b000840a78000000e9000000e000f9ff3a0017
:1028c0000800370033002000b3bf9f00c0bf9f0047
:1028d000d1bf9f00e2bf9f006a805700a806070093
:1028e0006fb99700020078000080fa00000006002f
:1028f0000a00fa0051002000b1bf9f00c0bf9f0036
:102900006a805700a00607005fb897000080fa00b1
:1029100000000600889fbe0080047800c009810086
:102920000000e00004003a000e0007000084eb0005
:102930000000e00008003500c80981000900e0003f
:102940000500320009004400060007000000e00016
:1029500001003d000084eb00080078004f04be0039
:1029600000000600800078000100e00003003a004b
:10297000a0132200c0098900000005000080eb00c0
:10298000e2192200828f500002003e00c109890036
:102990000000eb00000006006022b80006022000e4
:1029a0000000d0008180d2000482d2008582d20053
:1029b0000000a0000202520083825a00030031008e
:1029c0000202420083824a000000a1000603e900df
:1029d000f3ff3a0000000600e1f621007c03070047
:1029e000800078000080eb000100e000040035006a
:1029f000e1f62100a00020001d0207004f80de004c
:102a0000000006000001fa00889fbe008a9fbe00f9
:102a10008c1f78000004be0002057800f00320003f
:102a2000808f51000a003e000000eb0005003700d7
:102a3000984078001a5c7800195d7800815c780015
:102a40000000e800830f5000f9ff3a001e00370035
:102a5000030678008c05780000102000800f5600d7
:102a600001003600800578000b01780088007800ae
:102a700060ef2f000f004000fb0307000b01780000
:102a80008a00780008007800f70307000b0178003f
:102a9000890078000a007800f30307000b01780032
:102aa00061ef2f008f80400009007800ee030700df
:102ab0000b0656000b0444008b8444000b054500b4
:102ac0000c00e000e3ff3a004f0678004f05be001f
:102ad0004f04be000080fa00000006000001fa006a
:102ae000889fbe008a9fbe000005be00f003200044
:102af000800f510009003e000000eb000400370089
:102b00009a4078001b5d7800815d78000000e80045
:102b1000820f5000faff3a00180037008204780054
:102b20000904780000102000808f54000100360056
:102b300000047800080178008a00780080ef2f00f8
:102b40000f004000c8030700080178000a00be001b
:102b5000c50307000801780081ef2f008f80400037
:102b60000b007800c0030700888454000805450066
:102b7000888545000900e000e9ff3a004f05be00e6
:102b80004f04be000080fa0000000600889fbe00cf
:102b90008a9fbe008c1f78008004780001047800b2
:102ba0000205be00040678000800be000c0001000b
:102bb0000000e00004003d000b0178008800780070
:102bc00009007800c5ff0700880078000a00780037
:102bd0000c0001000000e00004003d000b01780043
:102be0008a00780008007800bcff07000800be00db
:102bf0000c0001000000e00004003d000b01780023
:102c00008800780009007800b4ff07004f067800bc
:102c10004f05be004f04be0000000600889fbe00a6
:102c20008a9fbe008c9fbe008e1f780080027800b5
:102c30008104780082057800030478000406780097
:102c400005855500820220008299b9008a0f510043
:102c500022003100110009000385d800000578002a
:102c60004355de000a05e80083d5b9000a87420013
:102c70000a014500028142008e00780005007800bc
:102c8000c2ff07008a06ea000a8144000d80440062
:102c90000c0278008801780089007800bbff0700eb
:102ca0008d864500e0ff2f0080d5b9000a804500e1
:102cb0000c027800880178000b0178008d00780004
:102cc000b2ff07000c027800880178000d0178003f
:102cd000890078000e007800030037000b017800af
:102ce0008900780005007800a8ff07004f077800ea
:102cf0004f06be004f05be004f04be000000060098
:102d0000e4874700889fbe008a9fbe008c9fbe005c
:102d10008e1f78000004be000205be0084bf9f0025
:102d20000906e8000c06460089d8b90000074400ef
:102d30008cd8b900800644000900780015003700df
:102d40008a0f5600060032008b8056000d00780076
:102d50000fb99700020001000000e00002003d00f2
:102d60000c06e9008b8656000b0178008d00780078
:102d70000e00780059ff07008c00e80081804000b9
:102d80008b89b9000c0078000d077800820644009a
:102d9000010678008a0f5600e9ff36001000370060
:102da0000006e9000c06d1008be5b9000a054400d5
:102db0008a0078000e0078000fb997000200010029
:102dc0000000e000080034000b0178008e0078005d
:102dd0000a00780041ff07000c0078000a0778001d
:102de000808f5400eeff39004f0778004f06be0079
:102df0004f05be004f04be004f00b10000000600aa
:102e00000001fa00889fbe008a9fbe008c9fbe0012
:102e10000005780001067800820578008a065600d1
:102e20008b8646008b047800150037000904780073
:102e300000102000808f540001003600000478004c
:102e400088805500810046000801780040ef2f007f
:102e50000f004000040307000881560008004500e9
:102e60008a007800070307000801780041ef2f006f
:102e70008f8040000a007800fb020700888454001d
:102e80000900e000e9ff3a004f06be004f05be0012
:102e90004f04be000080fa0000000600ea874700e9
:102ea000889fbe008a9fbe008c9fbe008e1f780048
:102eb0000005780081067800e2b79f0003047800df
:102ec000840578009b0037000d06d10088e6b90024
:102ed0000c06450088e8b90000004500d0b79f0007
:102ee000880446000800ea00f0b79f00dfb09700b2
:102ef000008140000b027800880178008c00780087
:102f00000a00780045ff0700010037000d06780031
:102f10008c0f5500090031007fb1970082064600f2
:102f20008c0078000d0078000b0001000000e0002c
:102f3000f6ff320001003700888444005fb097003c
:102f4000808f5400030039000c0778008906780050
:102f5000110037008c007800090078000b00010098
:102f60000000e000f4ff3200f7ff37000c00be0065
:102f70000b0001000000e000060035001c003a00d4
:102f8000080178008d00780009007800d3fe070062
:102f90008884440088864600dfb09700818f560001
:102fa00013003100f1ff37007fb197008201470025
:102fb0008c0078000300780083bf9f000b000100a5
:102fc0008fb997000000e000080035000a003a00c1
:102fd0007fb0970000064600080178008300780063
:102fe0000c007800bdfe07008fb99700030778003a
:102ff0008e0f5500ecff39008a0f570014003a007d
:10300000dfb09700818f56002b0032008d8f540067
:1030100005003a00080178008c007800090078006b
:10302000aefe07000500370088017800090178002e
:103030008c0078000d00780072fe0700888646003c
:1030400008064600888444000a077800d2ff37004b
:103050007fb19700020747005fb09700808f56004e
:1030600010003a0082844400020646008c0f57008c
:1030700006003a0008017800890078000e00780008
:1030800096fe07000e067800c3ff3700880178001f
:103090000c017800890078000e00780059fe0700c6
:1030a000bdff3700080178008e0078000d00780021
:1030b0008afe0700b7ff3700efb097000100d1008c
:1030c00001017800c210de0080804000e1b79f005f
:1030d0000a065600110009000886d800000678008c
:1030e00089865600110009008886d800800678007d
:1030f0008d0f560008003e000b0278008801780012
:103100006fb197008c0078000a00780063ff070019
:1031100009057800070037000b0278008801780065
:103120006fb197008d007800090078005bff070001
:103130008c067800efb097000100e0000400320038
:1031400000022000808f56005fff3e001e00370007
:1031500000022000808f56001b0036008d04d10035
:103160008904e9000b027800880178000d017800dd
:10317000890078000a007800e1fe07000900e000fd
:10318000f7ff3a0088e8b9008004450088845400bd
:1031900008017800890078000a0078004ffe0700d7
:1031a0008d06e9000b027800880178000d01780097
:1031b0008000eb000a007800d1fe0700e18f560086
:1031c000f2ff3e001f003700e18f56001d00360061
:1031d0008a04780019003700888444008a00780047
:1031e000090078000b0001000000e00004003d0031
:1031f00008017800890078000a0078000e00370086
:1032000009067800010037000e067800080756000e
:103210008e007800090078000b0001000000e0003b
:10322000f9ff3500890f56000400320008017800cc
:10323000890078000c007800f1fe07008d06e90097
:10324000e5ff3a004f0778004f06be004f05be006d
:103250004f04be00af00b10000000600030278007a
:103260008201780001017800820078000bff3700ae
:10327000889fbe008a1f78000004be00c90090002d
:1032800069009000808f5000050039000900780027
:103290002a0207008080eb000000e00016003500e5
:1032a000084578004900900008587800c00498004c
:1032b0001900780000b8a30004003a0000a8a30099
:1032c00007003200ea4f540005003a000900780078
:1032d000040107008080eb000000e00006003a00d7
:1032e00000c0200019006000020032004900900078
:1032f000e00498008a80fb00010078004f05780008
:103300004f04be0000000600889fbe000004780045
:1033100001007800820478008801780009017800b3
:103320001100200072010700890f500001003200d7
:103330000004eb00080078004f04be000000060007
:103340000000fa00e88157004fb99700e1f621002c
:1033500040982100020007000080fa0000000600eb
:103360006200fa00889fbe008a1f7800000578007e
:1033700081047800020478008300780080f92f002f
:103380000f004000f00207009a979f00a9979f0046
:103390000000eb00b09f9f001885fb008a04fb0033
:1033a0000a05ea004f55de0050022000808f5400cd
:1033b0000d003200e10f55000b003a000a017800c1
:1033c000880078002f9097009f91970003000100dc
:1033d000a0979f000000e0008e0032003f98970009
:1033e0000000e800b09f9f000a0444005002200043
:1033f000808f5400040032000900e000e6ff3a002c
:103400003f989700840037000000eb00909f9f00da
:10341000809f9f00f0979f00e0979f00d0979f00ac
:10342000c0979f0007003700611122000100500083
:1034300000004000a1102200808040005f989700ab
:1034400011007000d09f9f00880478000904780064
:10345000384578008a00fb00601122009b010700bc
:103460000000e000f0ff3a00a1c2b300814f550018
:103470000e003a00cf8897000180e900c08f9f00be
:1034800010007800c09f9f000000e00005003d0094
:103490000000ea00c09f9f005f9897000020a000f6
:1034a000d09f9f000904e8000f003700c09f9f00d5
:1034b0000000eb0005003700f2ff2700820f5000ec
:1034c00002003200ea00b9000080400009047800e0
:1034d00088047800b900fb000103b100e98f5000b7
:1034e000f5ff3600c09f9f00e0c2b300984f100068
:1034f000020032000080eb0019003700a0c2b300c8
:10350000d84f100007003a00cf8897000180e900eb
:10351000c08f9f0010007800a09f9f000804e80063
:10352000100037000000eb00a09f9f00880078008b
:1035300005003700f3ff2700830f50000200320020
:10354000ea00b9000000410001047800880078001a
:103550003101fb000203b100e90f5100f5ff360015
:10356000a09f9f00984478008900fb002010220053
:10357000560107000000e000020032000804e800e5
:10358000010037008044eb00c97f9f0080c6b30074
:1035900080cf540004003a0098cf14000a003a008b
:1035a0006640500006003700c0c6b30080cf54000c
:1035b00005003a0098cf140003003a00654040002f
:1035c000c07f9f000804e8001801fb00e3fb2f0008
:1035d0008f81410081f92f008f804000a0f92f00da
:1035e0000f004000100007000000e00009003a0052
:1035f000e1fb2f008f804000a0f92f000f0040005a
:10360000950107000000e000020035000804e80012
:1036100061ff37000080eb004f0578004f04be00cb
:103620000080fa0000000600889fbe008a1f780014
:103630000004780030c5b300804f5100080032000c
:1036400030c7b300804f51000500320051c2b300b3
:1036500078009000814f510017003a0014003700a5
:103660001180e90080087800100578006a0498004d
:10367000d80c90000900e00004003d000a0078002a
:103680001e01070080047800070037000901780058
:103690008000eb000a007800e90007000000e0006d
:1036a000010032008a045000190c9800090037000c
:1036b0008081410004003700808141000204e00065
:1036c00001003a0001417800824978000000e800da
:1036d000700498000000eb004f0578004f04be0016
:1036e00000000600889fbe008a1f78000004780052
:1036f0000800e0000d003a00c8fb210070054400fe
:103700008004eb00580078000000e0000400320064
:10371000f4ff07000000e00001003d008084eb00a2
:103720008a0f5400f7ff3a002500370000002200fe
:10373000180060008004eb0021003200a804900013
:103740000f00370009015100384090000000fb00d5
:103750008900780038fc07000000e00007003c000a
:10376000280090004004980060049800500c9800d5
:103770001890a0008084eb00110037008084440082
:1037800048019000828f5400eeff3900280090001d
:10379000400498009800780002c020000281600078
:1037a00001003a003800900001e8a3000200320056
:1037b0006004980001003700500c98008004eb0072
:1037c000090078004f0578004f04be000000060095
:1037d000889fbe008a9fbe008004780001047800a4
:1037e0002c003700c800900068009000808f5000c7
:1037f0000400390008007800d00007000000e00055
:103800003700350000402000180060000900320039
:10381000a100200009007800be00070080057800a4
:103820000b00e00003003200618514000a854500aa
:103830000400370009007800b00007000005780098
:103840008005eb0048009000e80090008080500068
:103850008a8f500002003100010578008005eb00de
:103860000a017800890078007f0007004800900076
:103870000a004000400498000b00e0000400320001
:103880000800780097ff07000000e00014003a00ed
:103890008a8444001904e000d2ff3a00008020002e
:1038a0001800600006003200080078008dff070055
:1038b000800078000080eb000100e00009003a0081
:1038c00001c02000988060000000eb00050032007d
:1038d00048009000600498000000eb0001003700f1
:1038e0000080eb004f05be004f04be000000060044
:1038f000889fbe008a9fbe008c9fbe008e1f7800ee
:103900000006780001047800020078008304780043
:103910008881b900020778000e00e0004200320002
:103920000800e000410032008e057800c9009000d8
:1039300069009000808f5000040039000900780071
:103940007e0007000000e000290035000040200054
:10395000190060000a0032000b017800a10020006d
:103960000c00780036000700800678000d00e000ab
:1039700006003200610516000a8546000400370083
:103980000b0578008006eb00010037000b0578007e
:1039900049009000e9009000808050008a8f50001c
:1039a00002003100010578008006eb000a01780072
:1039b0008c0078002c0007008a8555004900900093
:1039c0000a004000c00498000d00e000040032002e
:1039d0000900780043ff07000000e00004003a00ff
:1039e0000b00e000020032000a064600cfff37005d
:1039f00000802000190060000200320009007800f9
:103a000038ff070000c020001900600002003200eb
:103a100049009000e00498008b0557001100090050
:103a20008885d800010037000000eb004f077800c0
:103a30004f06be004f05be004f04be00000006004a
:103a400003003700b0cf1000050032000201e9008a
:103a5000800178000200e000faff3a000000050053
:103a600003007800000006008001780002003700a3
:103a7000b15978000201e9000200e000fcff3a00c1
:103a80000000060000027800808f50000c0031001a
:103a900082814000830f5000090031008200400005
:103aa00002003700c36078000201e9000200e00074
:103ab000fcff3a0000000600315a78000201e900dc
:103ac0000200e000fcff3a000000060002003700a0
:103ad0000304e000060032000001780002007800d4
:103ae000b041780081cf5100f9ff3a000100370062
:103af0000001eb0002007800000006008000780062
:103b0000010178003104e000fdff3a00000051009f
:103b1000000006000001eb0000027800b0417800d0
:103b200081cf510001003a00040178000304e00055
:103b3000f9ff3a000200780000000600889fbe00ee
:103b40008a1f780000047800c80090006801900087
:103b50000000eb00828f50003c0039001800780014
:103b60002200290002016000e20f5100070032002c
:103b7000012024000000e00001003d0001202000a1
:103b8000008c70000080eb0030003700020026003f
:103b900002006000820f500009003a0038009000d7
:103ba000808f50000600390008007800cdfe070025
:103bb000800078000080eb000100e00023003a0064
:103bc0001805780000c020000000650018003a00c9
:103bd000a80490006002200008004000808f54007c
:103be00013003a0000202000af01070020049800d5
:103bf0000000e00005003a002904980049049800fc
:103c00008904e80039049800080037000a60a00021
:103c10000a0c7800400498000120200080804000b9
:103c200031049800400c9800500c9800ca0007001e
:103c3000280090005004980038009000600498001c
:103c400000002600180c70000000eb004f05780003
:103c50004f04be00000006000400fa00889fbe006a
:103c60008a9fbe008c1f780000047800010678004f
:103c7000f80d9000780090008085550008089000ad
:103c80008085550018089000808555002808900010
:103c900080855500380890008085550048089000c0
:103ca000808555000002220090bf9f000003230082
:103cb000a0bf9f00081090000028a30015003a0044
:103cc0000b00e000130034000b0578008a04780034
:103cd000e20f55000100360029002000c8019000c5
:103ce00009017800ee8057005800900003000100a1
:103cf000500498000000e0008c003200680890003a
:103d000009004000600c9800090555004240a900d8
:103d1000eeff3c00780190000200e0000c0034004f
:103d2000c80190008c00780058009000030001004a
:103d3000500498008080eb000000e0007c0032001e
:103d4000e80890007800900000804000600c980027
:103d5000880c90000900e00011003400090578008b
:103d6000e28f5400010036002a002000c8019000b4
:103d70000a017800ec805700580090000300010011
:103d8000500498000000e0006800320068089000cd
:103d90000a004000600c98008a845400edff370050
:103da000180990000200e0000c003400c8019000e7
:103db000e8009000580090000300010050049800b3
:103dc0008080eb000000e00059003200e80890001d
:103dd0001808900000804000600c9800a80c90002b
:103de0000900e0001100340009057800e28f54005a
:103df000010036002a002000c80190000a01780066
:103e0000ec80570058009000030001005004980017
:103e10000000e00045003200680890000a00400001
:103e2000600c98008a845400edff37003809900038
:103e30000200e0000e003400e80090001808900036
:103e400080804000c80190005800900003000100ed
:103e5000500498008080eb000000e0003400320045
:103e6000e80890003808900000804000600c98003e
:103e7000c80c90000900e00011003400090578002a
:103e8000e28f5400010036002a002000c801900093
:103e90000a017800ec8057005800900003000100f0
:103ea000500498000000e0002000320068089000f4
:103eb0000a004000600c98008a845400edff37002f
:103ec000081090008000eb000028a30018003200ca
:103ed0000b00e000160034008b0478000905780020
:103ee000e28f5400010036002a002000c801900033
:103ef0000a017800ee80570058009000030001008e
:103f0000500498000000e0000800320068089000ab
:103f10000a004000600c98008a8454004240a900c6
:103f2000eeff3c008000eb00010037008080eb00da
:103f3000010078004f0678004f05be004f04be0018
:103f40000080fa000000060001087800000006006a
:103f5000e004220062003700881f78002813220046
:103f60001804e00003003a00f9ff070020c0b30086
:103f7000004c78004f04780000000600889fbe00c7
:103f80000004780008007800d6fd0700800478005f
:103f90000004200018006000020032002800900099
:103fa0005c0007000000eb002004980038409000ff
:103fb0000004e000050035000000fb0015fa0700d2
:103fc0000000e000010032008084eb001810900037
:103fd0000000e0000800320045fa07000000e000a1
:103fe000010032008084eb001810900049000700a7
:103ff0000000eb001014980000082000180060007a
:10400000150032000001eb006000b8000202d00091
:10401000e3fb210003024200940f140005003a0064
:104020000000400081804800008041000008eb0053
:104030000600370061004000e08048000201e8000f
:10404000e80f5000e08f5800f0ff3a0008007800b9
:10405000300007000e003700000c780000c0eb00b5
:1040600030449800600220000800400020049800be
:104070004004980050049800400c98006004980098
:10408000500c98007004980076004400000c9800d2
:10409000090078004f04be0000000600881f780069
:1040a0000004eb006140b800e2ff2f00f3ff2f0097
:1040b000b7000700c2fc2100800041001100780019
:1040c0000000e00001003200acff07000804e80037
:1040d000e80f5400f3ff3a004f0478000000060098
:1040e000010020000100e000090032000100800012
:1040f0000100e000060032008100e90001008800b4
:104100008100d0000200800082804000800878009a
:10411000000006000000e0002f003200c00178001f
:10412000e38f51002c0036000308a3002a003a0058
:10413000810981000100e00002003200810f50007f
:104140000400310011009800800989001600370032
:1041500082007800110190000200e00002003200ad
:10416000800f5100faff390011027800848240006c
:10417000850f500018003900808f520003003a006c
:104180008308420001007800070037000200e000c9
:104190000300320083014000830f51000e003900fc
:1041a0001200980090009800900090000100e0003c
:1041b0000900320010014000828f500006003a00d2
:1041c000e21222000009eb00100178001108410002
:1041d000910090001100980000000600889fbe002a
:1041e00000047800710981000100e0000200320043
:1041f000010078000d0037008109810000132200c2
:1042000004003700910f5400250036000180e800bb
:10421000910090000100e000faff3a001000370022
:10422000920f54001e0036000280e8001001780052
:104230000200e000faff3a001101780081098100d4
:104240000013220004003700910f540014003600c0
:104250000180e80091009000828f5000faff3a0040
:10426000a9098100888f540001003100880478007a
:1042700009007800360007000000e00004003a0062
:10428000888f5400050032008904d100f5ff370003
:10429000091878009fff0700d2ff37000000eb00ed
:1042a0004f04be0000000600881f78006304400031
:1042b0000800a1008000eb00800f540021003600b0
:1042c000e30f540001003e00480020000800780081
:1042d000c2ff07008000eb000000e0001900320080
:1042e000900078009101780064815100880f51009e
:1042f0000300310011019000020878000700370028
:104300000881400002087800910190001301980094
:104310001001780011091400880878001001780055
:104320000000eb000200e000040032009201900067
:104330000300e000010032000280e80070098900fb
:104340008180e800010078004f047800000006003a
:10435000800078000000eb000100e0000500340060
:10436000010078006bf90700e10f400001003a00fe
:104370000000eb000000060000c0da0000000600ac
:1043800000c0da000000060000c0da0000000600ed
:10439000020ab900001bb9000200b8008100420007
:0843a00081004300000006004b
:020000040000fa
:1043a8000a4d0000696c000065730000746f00001e
:1043b8006e650000392f000073720000632f000043
:1043c8007439000073790000746800002e630000df
:1043d8002c20000062750000696c00007420000049
:1043e8006f6e0000204a0000616e0000203200005d
:1043f8003220000032300000313600002061000019
:1044080074200000313400003a300000343a0000d3
:1044180034360000006e00006f0000007465000074
:1044280073740000000a00004d6900006c6500000c
:10443800737400006f6e0000653900002f73000070
:10444800726300002f740000397300007974000053
:10445800682e0000632c00002062000075690000cf
:104468006c740000206f00006e2000004a6100009c
:104478006e2000003232000020320000303100008f
:10448800362000006174000020310000343a00003a
:10449800303400003a340000360a00000000000002
:0844a8000a0d000000000000f5
:020000040000fa
:1044b000a1c121008048780000000600c0de210074
:1044c0001040780000000600c1de2100804878001e
:1044d00000000600d0de21000048eb0000000600ce
:1044e000d0de210010407800000006000004e0004b
:1044f00015003400a5c12100954f500012003c006a
:104500000000fb008002e90000004000a6c121007d
:104510000000430003087800200d20000600400042
:104520000500400001487800200e200006004000f1
:104530000500400002487800200c200006004000e2
:1045400085024000844a780000000600889fbe0073
:10455000804478005719070011c0b3000040eb00f9
:10456000681907000900fb000004e900b1ce210032
:10457000010040001004e00019003a00e1cf5400af
:104580000a0032006f805000000044001000fb0061
:104590001200200011002000b318070012002000b4
:1045a0001100200000022000af18070012002000b8
:1045b0001100200030052000ab1807001200200079
:1045c0001100200050062000a7180700120020004c
:1045d0001100200040072000a31807001f0037002b
:1045e000c0ce21000000440011c0b30090cf1000e5
:1045f0001a003a00c0cd2100000044001000fb006a
:10460000120020001100200097180700120020005f
:104610001100200000022000931807001200200063
:1046200011002000200520008f1807001200200034
:1046300011002000500620008b18070012002000f7
:10464000110020001006200087180700120020002b
:1046500011002000400620008318070011c0b3009d
:1046600000c4b300271907000804e8000804440048
:10467000a0c1210008044000180078009082880042
:10468000104078000004e0000a003200180020000a
:104690000000fb000801780088007800721807000d
:1046a0005210ec0090828800104078000004e00076
:1046b000f7ff3a004f04be00000006000004e000cf
:1046c0000c003400a3c12100934f500009003c00ae
:1046d0000000fb007002400004024200048241001e
:1046e000010a78000002b000000040008081410013
:1046f00082097800000006000004e0000d0034008c
:10470000a3c12100934f50000a003c000000fb00b1
:10471000040320000002420004024200048241001f
:10472000010a78000004b0000000400080814100d0
:1047300082097800000006000004e0001200340046
:10474000a4c12100944f50000f003c000000fb006a
:1047500005032000808242008582420085024200db
:10476000810a7800010420008080400081804000a0
:1047700081004200820878000005b000000040007f
:1047800000024200030a7800000006000000fb005f
:10479000b1da21000100400010407800000006005e
:1047a0000000fb00b1d02100010040001040780063
:1047b000000006000000fb00b2d021000200400013
:1047c00001487800000006000004e00019003400f1
:1047d000a5c12100954f500016003c000000fb00d1
:1047e0000003e9008708200080834300878343009b
:1047f00087834200810b7800870920008083430073
:104800008783430087834200820b7800800ab000d0
:104810000000400080824200810a7800c0dc210054
:104820000600400003487800c0dd21000603400078
:10483000044b7800000006000004e000080034008b
:10484000a2c12100924f500005003c000000fb0077
:10485000800ab0000000400000004100010878001c
:10486000000006000000fb00800ab00000004000cd
:10487000a1c1210000804000100078000000060067
:104880000000fb00b2db210002004000014878007c
:10489000000006000004e0000c003400a3c1210069
:1048a000934f500009003c000000fb001310b000c3
:1048b0008301400081497800800bb0000000400077
:1048c000a1c121000080400002087800000006001d
:1048d000889fbe000000fb008004e90070004000db
:1048e00000004000a1c121000080400010007800bd
:1048f0008082880011c0b3000040eb0081180700df
:1049000080828000104078000004e0000a0032003d
:10491000180020000000fb000801780088007800e3
:10492000d11707005010ec008082880010407800fa
:104930000004e000f7ff3a001902b0008984440047
:10494000a0c1210089044000990478008982880070
:1049500011c0b30000c4b3006a1807008082800051
:10496000104078000004e0000a0032001800200027
:104970000000fb000801780088007800ba170700e3
:104980005010ec0080828800104078000004e000a5
:10499000f7ff3a004f04be0000000600889fbe00eb
:1049a0000000fb008004e9000003b00000004000ac
:1049b000a1c12100008040001000780070828800b2
:1049c00011c0b3000040eb004e1807007082800059
:1049d000104078000004e0000a00320018002000b7
:1049e0000000fb0008017800880078009e1707008f
:1049f0004e10ec0070828800104078000004e00047
:104a0000f7ff3a001904b00089844400a0c12100d6
:104a100089044000990478007982880011c0b300ad
:104a200000c4b3003718070070828000104078007f
:104a30000004e0000a003200180020000000fb0023
:104a40000801780088007800871707004e10ec00f6
:104a500070828800104078000004e000f7ff3a0000
:104a60004f04be0000000600889fbe008a1f780029
:104a7000814478000000fb000005e90000004000d0
:104a8000a1c12100008040001000780060828800f1
:104a900011c0b3000040eb001a18070060828000cc
:104aa000104078000004e0000a00320018002000e6
:104ab0000000fb0008017800880078006a170700f2
:104ac0004c10ec0060828800104078000004e00088
:104ad000f7ff3a00e1cf540007003a001a03b00094
:104ae0000a054500a0c121000a0540001a0578000a
:104af0006a8288000f003700e2cf540007003a00b6
:104b00001a04b0000a054500a0c121000a054000b2
:104b10001a0578006a828800060037001a05b0007e
:104b20000a054500a0c121000a0540001a057800c9
:104b30006a82880011c0b30000c4b300f1170700f7
:104b400060828000104078000004e0000a0032001b
:104b5000180020000000fb000801780088007800a1
:104b6000411707004c10ec0060828800104078006c
:104b70000004e000f7ff3a004f0578004f04be0044
:104b800000000600889fbe000000fb008004e900d2
:104b90000003b00000004000a1c1210000804000df
:104ba000100078005082880011c0b3000040eb0074
:104bb000d417070050828000104078000004e00005
:104bc0000a003200180020000000fb0008017800f5
:104bd00088007800241707004a10ec0050828800f3
:104be000104078000004e000f7ff3a001904b0001c
:104bf00089844400a0c12100890440009904780000
:104c00005982880011c0b30000c4b300bd1707006b
:104c100050828000104078000004e0000a0032005a
:104c2000180020000000fb000801780088007800d0
:104c30000d1707004a10ec005082880010407800e1
:104c40000004e000f7ff3a004f04be000000060039
:104c5000881f78000000fb0000004000a1c1210077
:104c600000804000100078004082880011c0b3002e
:104c70000040eb00a317070040828000104078003e
:104c80000004e0000a003200180020000000fb00d1
:104c90000801780088007800f31607004810ec003f
:104ca00040828800104078000004e000f7ff3a00de
:104cb0004f047800000006008040780000c3b30075
:104cc0000104e000190032000040e800e1cf50008c
:104cd000160032000040e800e2cf5000130032001e
:104ce0000040e800e3cf5000100032000040e80030
:104cf000e4cf50000d0032000040e800e5cf500046
:104d00000a0032000040e800e6cf50000700320001
:104d10000040e800e7cf50000400320000c0e80087
:104d2000e8cf500001003a000040e9000000060012
:104d30008000eb00ea0f500015003600050a200045
:104d400007102000030f200002f020000660200062
:104d5000f08040006a005000858f5000090032004a
:104d600003826000830f520001003a000106b00088
:104d700002826000820f520003003a0086804000e9
:104d80000100370087007800ea0f5000f0ff3e0076
:104d900000804000ef006000ea8f500003003a00fe
:104da0007000400002ff2f000200600080007800c9
:104db000010fb200020a2000828f500004003a0066
:104dc0000010b000f2f02f00020060002700370052
:104dd000020b2000828f500005003a000010b00046
:104de000f2f02f0002006000700040001f0037004a
:104df000020c2000828f500005003a000010b00025
:104e0000f1f02f00010060000002b0001700370031
:104e1000020d2000828f500005003a000010b00003
:104e2000f1f02f00010060000003b0000f00370018
:104e3000020e2000828f500005003a000010b000e2
:104e4000f1f02f00010060000004b00007003700ff
:104e5000020f2000828f500004003a000010b000c2
:104e6000f1f02f00010060000005b00001f020000b
:104e70008100600002a02000828f500005003a00ef
:104e80000100210001004000f20f2f00020060002d
:104e90002e00370002b02000828f500006003a003a
:104ea0000100210001004000f10f2f00010060000f
:104eb0000010b0002500370002c02000828f500093
:104ec00006003a000100210001004000f10f2f0010
:104ed000010060000020b0001c00370002d020005c
:104ee000828f500006003a000100210001004000be
:104ef000f10f2f00010060000030b00013003700f8
:104f000002e02000828f500007003a0001002100db
:104f100001004000f10f2f008100600000402000e0
:104f2000008040000900370002f02000828f50000e
:104f300006003a000100210001004000f10f2f009f
:104f4000810060000050200000804000000006004a
:104f5000430020000300dd0080c04000f4cf50007b
:104f600005003e0000c2b3000204e0006b00320006
:104f700080c6b30069003700f5cf500005003a0045
:104f800010c2b3000204e0006400320090c6b30017
:104f900062003700f6cf500005003a0020c2b3008f
:104fa0000204e0005d00320020c7b3005b00370060
:104fb000f7cf500005003a0030c2b3000204e00011
:104fc0005600320030c7b30054003700f8cf50000d
:104fd00005003a0040c2b3000204e0004f00320076
:104fe00050c7b3004d003700f9cf500005003a001c
:104ff00050c2b3000204e0004800320070c7b300a2
:1050000046003700facf500005003a0060c2b300f6
:105010000204e0004100320090c7b3003f003700b7
:10502000fbcf500005003a0070c2b3000204e0005c
:105030003a00320010c8b30038003700fccf5000ef
:1050400005003a0080c2b3000204e00033003200e1
:1050500020c8b30031003700fdcf500005003a00f2
:1050600090c2b3000204e0002c00320040c8b3003c
:105070002a003700fecf500005003a0000c3b300fd
:105080000204e0002500320060c8b30023003700ae
:10509000ffcf500005003a0010c3b3000204e00047
:1050a0001e00320080c8b3001c00370000c2b300ed
:1050b00080cf500005003a00724040000204e0003a
:1050c0001600320000c9b3001400370010c2b3004c
:1050d00080cf500005003a00724040000204e0001a
:1050e0000e00320010c9b3000c00370020c2b3001c
:1050f00080cf500005003a00724040000204e000fa
:105100000600320030c9b3000400370050c3b300ba
:105110000204e0000100320050c9b30000000600a4
:10512000881f78000000fb0000004000a1c12100a2
:1051300000804000100078003082880011c0b30069
:105140000040eb006f1607003082800010407800ae
:105150000004e0000a003200180020000000fb00fc
:105160000801780088007800bf1507004610ec00a1
:1051700030828800104078000004e000f7ff3a0019
:105180004f04780000000600889fbe0000047800ed
:1051900081447800284090000074a00020449800ca
:1051a000180078000000e00004003200d120200048
:1051b000810f50003e003a00200037003d160700e6
:1051c00009407800c2fd0700350037009411070040
:1051d0000004e00005003200120020008000eb0017
:1051e00080012000a0150700070037008f1107007d
:1051f0000004e00004003200120020008000eb00f8
:10520000c001200098150700091007000004e00005
:1052100001003200d670ef00b92107003004980079
:105220004104980040012000010020005004980033
:1052300061049800d0202000000c780028409000e5
:105240000028a3000400320040c0b30020449800ae
:1052500030c0b3001a00370058019000e8019000f8
:1052600038009000c8009000e11807000000e0003e
:1052700004003200284090000004a100204498005f
:1052800003003700284090000004a000204498004c
:10529000a84090000040eb000108a30008003a007d
:1052a000d650e200c9ff3a0010c0b300d6f0b700f4
:1052b00080c0b30020449800000ceb0030c0b30065
:1052c0004f04be0000000600889fbe000004780066
:1052d00081447800284090000074a0002044980089
:1052e000180078000000e0000400320011232000c4
:1052f000810f500068003a004a003700ed150700a2
:1053000081c0b3000040eb00fe1507001200200032
:10531000110020000000eb00531507000940780041
:105320009efd0700580037003d1107000004e00013
:1053300003003a00a40f07000004e0001000320050
:1053400081c0b3000040eb00ee1507001200200002
:10535000110020000000eb004315070081c0b300de
:1053600000c4b300e7150700120020001100200060
:10537000000220003c1507004470ef0016003700c3
:105380002a1107000004e00003003a009b0f070009
:105390000004e0001000320081c0b3000040eb00c8
:1053a000d815070012002000110020000002200084
:1053b0002d15070081c0b30000c4b300d11507004c
:1053c00012002000110020000000eb00261507004d
:1053d00010c0b30044f0b700950f07000004e000d0
:1053e00007003200d570ef008900fb00b0da210021
:1053f000008040004104210091407800014878007d
:105400003f2107003004980041049800400120002b
:10541000010020005004980061049800102320002f
:10542000000c7800284090000028a30004003200ff
:1054300040c0b3002044980030c0b3001a003700c9
:1054400058019000e801900038009000c8009000da
:10545000671807000000e0000400320028409000b8
:105460000004a10020449800030037002840900069
:105470000004a00020449800a84090000040eb00e9
:105480000108a30008003a00d550e200a6ff3a0048
:1054900010c0b300d5f0b70080c0b300204498001e
:1054a000000ceb0030c0b3004f04be00000006004b
:1054b000889fbe0000047800814478002840900056
:1054c0000074a000204498001800780021272000d4
:1054d000810f50008a003200e3804000810f5000ad
:1054e000a30032000000e000be003a008900fb008b
:1054f000b0d021000080400010417800210421003c
:10550000824878006b150700210421009140780043
:105510000940780054fd070071c0b30000c4b30017
:105520007815070012002000110020000002200062
:10553000cd140700120020001100200020002000e0
:10554000c9140700a30037001f0f07000004e00084
:1055500003003a00b51007000004e0000b00320021
:1055600042d0bf00e14f5000190036008040e900f2
:105570002004210001487800094078003afd070026
:1055800010c0b30043f0b700130037001b0f070033
:105590000004e00003003a00a11007000004e0004e
:1055a0000b00320042d0bf00e24f500008003e0026
:1055b0008040e8002004210001487800094078007c
:1055c00029fd070010c0b30043f0b7000200370008
:1055d0004350e2003900320042d0bf00e14f50009a
:1055e00013003a0081c0b3000040eb0045150700ee
:1055f0001200200011002000000220009a14070071
:1056000071c0b30000c4b3003e15070012002000b3
:105610001100200000022000931407001200200057
:1056200011002000200020008f1407002300370005
:10563000e24f500013003a0081c0b3000040eb007d
:10564000301507001200200011002000100020007b
:105650008514070071c0b30000c4b300291507000a
:105660001200200011002000000220007e1407001c
:105670001200200011002000200020007a140700f2
:105680000e00370081c0b3000040eb001d1507007d
:1056900012002000110020001000200072140700ea
:1056a00081c0b30000c4b30016150700120020002b
:1056b00011002000000220006b140700dc0e070020
:1056c0000004e00021003200d470ef008900fb00ec
:1056d000b0d02100008040002104210091407800da
:1056e00001487800e1cf540018003a0011c0b3001f
:1056f000d0de21000148780020272000000c78002f
:10570000284090000028a3000400320040c0b300ed
:105710002044980030c0b30036003700d1de2100ad
:105720001104e00003003a000004a10020449800a6
:10573000020037000004a00020449800a840900018
:105740000040eb000108a3002a003a006c2007008b
:10575000300498004104980040012000010020001e
:10576000500498006104980050272000000c780035
:10577000284090000028a3000400320040c0b3007d
:105780002044980030c0b3001a0037005801900040
:10579000e801900038009000c800900094170700be
:1057a0000000e00004003200284090000004a10046
:1057b0002044980003003700284090000004a00017
:1057c00020449800a84090000040eb000108a3008e
:1057d00008003a00d450e2005bff3a0010c0b3006a
:1057e000d4f0b70080c0b30020449800000ceb0058
:1057f00030c0b3004f04be0000000600889fbe000a
:105800008a9fbe0000047800814478002840900000
:105810000074a00020449800180078000000e00008
:1058200004003200212f2000810f500016013a00a1
:10583000f10037000900fb00800ab00000004000c2
:10584000a1c1210000804000100078000082880083
:105850009814070009407800fdfc0700ff0037009e
:10586000590e07000004e0000b0032000900fb00a5
:105870008009b00000004000a1c12100008040006c
:1058800001828000908f1000100036008100e80037
:10589000018288000d003700580e07000004e00068
:1058a0000a0032000900fb008008b0000000400040
:1058b000a1c121008080400000828000910f100073
:1058c000020031000000e90000828800d40f0700c8
:1058d0000004e000190032000900fb000001e900ab
:1058e0008009b00000004000a1c1210000804000fc
:1058f00001828000908f1000280036002103b00044
:105900000182880090092000020040000000400051
:10591000a3c1210000804100908f50001f0036007d
:105920009209b0000201410003007800020040002b
:10593000100078000082880018003700bb0f0700b5
:105940000004e000150032000900fb000001e9003e
:105950008008b00000004000a1c12100808040000c
:1059600000828000910f10000c0031002003b10074
:1059700000828800910820008280400081804000e1
:10598000a3c1210081804100910f5000030031002c
:105990000100780010007800008288000a828000f0
:1059a0000a007800e2fc0700f0818800cc00de00ed
:1059b00081417800c203210003497800c800de005d
:1059c000efc0600081417800b203210003497800f4
:1059d0008080fb00c408de0081417800a203210022
:1059e000034978006f40600039f0b7008900fb0080
:1059f0008105e900b2dd2100828040001104e00051
:105a000041003200e24f500007003a003a70ef00c8
:105a100010c0b3003bf0b7003c70ef002000200046
:105a20000082880037003700e34f500007003a003b
:105a300010c0b3003af0b7003bf0b7003c70ef0085
:105a400030002000008288002e003700e44f500014
:105a500007003a003a70ef003b70ef0010c0b3004f
:105a60003cf0b7004000200000828800250037008d
:105a7000e54f500007003a0010c0b3003af0b700fd
:105a80003b70ef003cf0b70050002000008288001f
:105a90001c003700e64f500007003a003a70ef0054
:105aa00010c0b3003bf0b7003cf0b700600020002e
:105ab0000082880013003700e74f500007003a00cb
:105ac00010c0b3003af0b7003bf0b7003cf0b700ad
:105ad00070002000008288000a003700e14f50006b
:105ae000020032000a00e0000600320010c0b300dd
:105af0003af0b7003b70ef003c70ef001000200060
:105b0000008288003970ef0011c0b30000c4b300f8
:105b1000fc1307003cd0bf0067fc07000000fb003f
:105b200012002000110020004f1307003bd0bf00df
:105b300061fc07000000fb001200200011002000a3
:105b4000491307003ad0bf005bfc07000000fb00d0
:105b500012002000110020004313070039d0bf00bd
:105b600055fc07000000fb0012002000110020007f
:105b70003d130700c0dc2100808545001b04e000c8
:105b8000100032001200200011002000000320004d
:105b90003513070012002000110020000003200030
:105ba0003113070012002000110020000003200024
:105bb0002d13070012002000110020000003200018
:105bc000291307009a0d07000004e00001003200cd
:105bd000d370ef004a1f070030049800410498007a
:105be0003002200001002000500498006104980059
:105bf000202f2000000c7800284090000028a300ef
:105c00000400320040c0b3002044980030c0b3000c
:105c10002100370058019000e80190003800900002
:105c2000c8009000721607000000e0000400320077
:105c3000284090000004a100204498000300370091
:105c4000284090000004a00020449800a840900044
:105c50000040eb000108a3000f003a00d350e2001f
:105c6000fffe3a008904fb00890ab00089844400e1
:105c7000a0c121008904400000828000800c7800cf
:105c800010c0b300d3f0b70080c0b3002044980028
:105c9000000ceb0030c0b3004f05be004f04be0047
:105ca00000000600889fbe008a9fbe008c1f7800ff
:105cb0000004780081447800284090000074a0001f
:105cc0002044980018007800f1302000810f500027
:105cd0005c00320009003e00e4805000810f50005b
:105ce0001c003200e3804000810f50003a00320077
:105cf0000000e0000b0032008d013700d13620009b
:105d0000810f50004a013200e6804000810f5000b0
:105d10006a013200e7805000810f500084013a0090
:105d20002c0137006313070009407800fcfc0700d2
:105d30007b0137008900fb00b0d1210000804000ca
:105d400031c0b30090cf100076003a00b030200090
:105d5000000c7800284090000028a30004003200c6
:105d600040c0b3002044980030c0b3007401370035
:105d7000118580000168a30003003a000004a1001f
:105d800020449800020037000004a000204498003e
:105d9000284190000040eb000208a30068013a008f
:105da0000160a000118588008900fb00b0d12100ae
:105db000008040001040780051c0b300fe1807007a
:105dc00010c0b300d318070080ea21000008eb00e0
:105dd000e0302000000c7800284090000028a3004c
:105de0000400320040c0b3002044980030c0b3002b
:105df0005301370003c8b30062c0b3006103210040
:105e000080ea210034190700e24f500004003600f8
:105e1000284090000004a1002044980003003700af
:105e2000284090000004a00020449800a840900062
:105e30000040eb000108a30041013a00f0302000cf
:105e4000000c7800284090000028a30004003200d5
:105e500040c0b3002044980030c0b3003801370080
:105e6000f11807000004e000040032002840900010
:105e70000004a1002044980003003700284090004f
:105e80000004a00020449800a84090000040eb00cf
:105e90000108a3002a013a00b2818000ea11b9008a
:105ea00000a6250000004100122720001100090073
:105eb0000280d800b0818800804578000b06780009
:105ec0000c0fb2004466de00efc5650082032100be
:105ed000124178008b4078000c4078001cfc0700d1
:105ee00000457800400321000a4878000041eb009b
:105ef0008b4078000c40780015fc070033f0b700a9
:105f00000a007800000fb2004400de0031f0b70054
:105f10006f4565008a407800000321000148780041
:105f200022003700b2ec8000ea11b90000a625007b
:105f30000000410012272000110009000280d80053
:105f4000b0818800804578000b0678000c0fb20005
:105f50004466de00efc5650082032100124178002f
:105f60008b4078000c407800f9fb07000045780072
:105f7000400321000a4878000041eb008b40780084
:105f80000c407800f2fb070033f0b7000a007800fd
:105f9000000fb2004400de0031f0b7006f4565002d
:105fa0008a407800000321000148780011c0b30046
:105fb00000c4b300d312070031d0bf003efb07007e
:105fc0000000fb0012002000110020002612070034
:105fd00021c0b30000c4b300ca12070030d0bf0014
:105fe00035fb07000000fb0012002000110020001c
:105ff0001d12070031c0b30000c4b300c112070076
:106000003850e2000500320012002000110020008c
:106010006004200014120700040037001200200062
:1060200011002000300420000f12070033d0bf0001
:106030003250e3005b00320051c2b300814f500088
:106040003200360081c0b30000c4b300ad120700b7
:106050001200200011002000f00f200002120700a3
:1060600081c0b3000040eb00a61207001200200020
:106070001100200000022000fb11070081c0b300c6
:106080000040eb009f12070033d0bf0031c3b300c4
:10609000814f500005003600120020001100200042
:1060a000f00f2000f01107003a00370011c3b300d1
:1060b000814f500005003600120020001100200022
:1060c00030002000e811070032003700f1c2b300b1
:1060d000814f500005003600120020001100200002
:1060e00040002000e01107002a00370071c2b30011
:1060f000814f5000270036001200200011002000c0
:1061000050002000d81107002200370081c0b300e2
:106110000040eb007b12070012002000110020005d
:1061200000022000d011070081c0b30000c4b300fa
:106130007412070033d0bf0011c2b300814f50006a
:1061400005003e0012002000110020005000200039
:10615000c51107000f00370031c2b300814f500056
:1061600005003e0012002000110020004000200029
:10617000bd1107000700370051c2b300814f500026
:1061800004003e001200200011002000300020001a
:10619000b511070031032100914078002003210050
:1061a000014878009e0d07000004e00006003a0058
:1061b000050c07000004e00003003a000f0c070084
:1061c0000004e0002f0032003810aa00c036200082
:1061d000000c7800284090000028a3000400320042
:1061e00040c0b3002044980030c0b30054003700d2
:1061f000210c07000004e000040032002840900059
:106200000004a100204498000300370028409000bb
:106210000004a00020449800a84090000040eb003b
:106220000108a30046003a00d0362000000c780098
:10623000284090000028a3000400320040c0b300b2
:106240002044980030c0b3003d003700050c070023
:106250000004e00004003200284090000004a10087
:106260002044980003003700284090000004a0005c
:1062700020449800a84090000040eb000108a300d3
:106280002f003a00ea0b07000004e0000200320091
:10629000d270ef003270ef00991d070030049800b3
:1062a000410498004006200001002000500498009e
:1062b0006104980030372000000c780028409000de
:1062c0000028a3000400320040c0b300204498001e
:1062d00030c0b3001a00370058019000e801900068
:1062e00038009000c8009000c11407000000e000d2
:1062f00004003200284090000004a10020449800cf
:1063000003003700284090000004a00020449800bb
:10631000a84090000040eb000108a30008003a00ec
:10632000d250e20083fe3a0010c0b300d2f0b700b2
:1063300080c0b30020449800000ceb0030c0b300d4
:106340004f0678004f05be004f04be000000060057
:10635000881f780000047800284090000074a00096
:106360002044980018007800413c2000810f500024
:10637000f20032000e003e00413a2000810f500032
:106380005a00320003003e000000e0001a00320014
:10639000a4013700f13b2000810f5000a50032001e
:1063a0008180e800810f50009e013a00c100370053
:1063b000d13c2000810f50004601320007003e0012
:1063c000e6805000810f5000fe003200e380400064
:1063d000810f500093013a001c013700113d20004d
:1063e000810f5000570132008180e800810f50007a
:1063f0008c013a0071013700410c220080c5b300c6
:10640000cd120700c10c220000c6b300ca1207005b
:10641000410d220080c6b300c7120700030d07001c
:106420000004e00003003a00740b07000004e000e1
:1064300014003200808680008000e8008186880099
:10644000c2db2100020040001004e0000200320024
:106450008100e8008186880010c0b300cef0b7004c
:10646000a0c121001000fb00d010e3001d0034008b
:10647000a0c121001000fb0080868800ce70ef00d4
:1064800065003700e60c07000004e00003003a0056
:106490004d0b07000004e00010003200d010ed00aa
:1064a000808688000001e900b1db21000100400086
:1064b0001004e000010032008286880010c0b300a2
:1064c000cef0b700d010e20006003c001000200023
:1064d00080868800ce70ef004f003700ce50e2007b
:1064e0004d003200403a2000000c78002840900017
:1064f0000028a3000400320040c0b30020449800ec
:1065000030c0b3004b013700b71207000004e000b1
:1065100004003200284090000004a10020449800ac
:1065200003003700284090000004a0002044980099
:10653000a84090000040eb000108a3003d013a0094
:10654000d0d0bf0001f8070080868000e10f500026
:106550000f003a0081c0b3000040eb006911070052
:10656000120020001100200000022000be100700d1
:1065700081c0b30000c4b300621107001200200004
:106580001100200020002000b71007002100370074
:10659000a1c121009100fb00810f50000f003a00c3
:1065a00081c0b3000040eb0056110700120020002c
:1065b0001100200010002000ab10070081c0b300c4
:1065c00000c4b3004f11070012002000110020008a
:1065d00000022000a41007000e00370081c0b300a5
:1065e0000040eb00471107001200200011002000be
:1065f000100020009c10070081c0b30000c4b3004d
:10660000401107001200200011002000200020008f
:1066100095100700ce70ef00050b07000004e000a6
:10662000dd0032003413070070818800f03b200049
:10663000000c7800284090000028a30004003200dd
:1066400040c0b3002044980030c0b300f9003700c8
:106650000e0b07000004e000040032002840900008
:106660000004a10020449800030037002840900057
:106670000004a00020449800a84090000040eb00d7
:106680000108a300eb003a00808680008000e9004a
:10669000b2ce21000200400022c0b300904f110092
:1066a0001d003a00708180000008eb00103c2000c3
:1066b000000c7800284090000028a300040032005d
:1066c00040c0b3002044980030c0b300d900370068
:1066d000010d21009140780070818000aafa070026
:1066e000e24f500004003600284090000004a10052
:1066f0002044980003003700284090000004a000c8
:1067000020449800a84090000040eb000108a3003e
:1067100088003200c7003700c0cf21000080400051
:1067200012c0b300904f11001d003a00708180002c
:106730000008eb00403c2000000c7800284090004e
:106740000028a3000400320040c0b3002044980099
:1067500030c0b300b7003700010d21009140780030
:1067600070818000d8fa0700e24f50000400360024
:10677000284090000004a100204498000300370046
:10678000284090000004a00020449800a8409000f9
:106790000040eb000108a30066003200a5003700ae
:1067a000c0cf21000080400022c0b300904f1100f4
:1067b0001d003a00708180000008eb00703c200052
:1067c000000c7800284090000028a300040032004c
:1067d00040c0b3002044980030c0b300950037009b
:1067e000010d2100914078007081800030fb07008e
:1067f000e24f500004003600284090000004a10041
:106800002044980003003700284090000004a000b6
:1068100020449800a84090000040eb000108a3002d
:106820004400320083003700c0cf210000804000c8
:1068300042c0b300904f11001d003a0070818000eb
:106840000008eb00a03c2000000c780028409000dd
:106850000028a3000400320040c0b3002044980088
:1068600030c0b30073003700010d21009140780063
:1068700070818000e1fb0700e24f50000400360009
:10688000284090000004a100204498000300370035
:10689000284090000004a00020449800a8409000e8
:1068a0000040eb000108a300220032006100370025
:1068b000c0ce21008080400010c0b300914f100076
:1068c0001c003a00708180000008eb00d03c2000e2
:1068d000000c7800284090000028a300040032003b
:1068e00040c0b3002044980030c0b30051003700ce
:1068f000010d21009140780070818000e9fc0700c3
:10690000e24f500004003600284090000004a1002f
:106910002044980003003700284090000004a000a5
:1069200020449800a84090000040eb000108a3001c
:1069300040003a0010c0b300cef0b700103d200078
:10694000000c7800284090000028a30004003200ca
:1069500040c0b3002044980030c0b3003500370079
:106960004a0a07000004e0000400320028409000ba
:106970000004a10020449800030037002840900044
:106980000004a00020449800a84090000040eb00c4
:106990000108a30027003a00d91b07003004980023
:1069a000410498009001200001002000500498004c
:1069b00061049800303d2000000c780028409000d1
:1069c0000028a3000400320040c0b3002044980017
:1069d00030c0b3001700370058019000e801900064
:1069e00038009000c8009000011307000000e0008c
:1069f00004003200284090000004a10020449800c8
:106a000003003700284090000004a00020449800b4
:106a1000a84090000040eb000108a3007ffe320078
:106a20000400370080c0b30020449800000ceb0045
:106a300030c0b3004f04780000000600e00b0700f0
:106a4000d50f0700e20f0700c10b220000c4b300fe
:106a500039110700410b220080c4b3003611070032
:106a6000c10a220000c5b30033110700801a2300b9
:106a70006f11070000000600881f780000047800ee
:106a8000284090000074a00020449800180078006e
:106a9000f10e2000810f50007d0032000e003e00fc
:106aa000eb805000810f50001a00320003003e00be
:106ab0000000e0001300320011013700810e2000b9
:106ac000810f50002f003200e3804000810f500002
:106ad0000b013a004c003700110f2000810f5000cd
:106ae000a80032008e0039008100e800810f5000bc
:106af000c00032008100e800810f500000013a0020
:106b0000d800370010c0b30082f0b700400e20005c
:106b1000000c7800284090000028a30004003200f8
:106b200040c0b3002044980030c0b300f8003700e4
:106b3000c18380000100e000030034000004a100d4
:106b400020449800020037000004a0002044980070
:106b5000284190000040eb000208a300ec003a003e
:106b60008100e900c1838800a10222000004200006
:106b70000100400011487800de003700800e200040
:106b8000000c7800284090000028a3000400320088
:106b900040c0b3002044980030c0b300dc00370090
:106ba000118580000148a30003003a000004a10001
:106bb00020449800020037000004a0002044980000
:106bc000284190000040eb000208a300d0003a00ea
:106bd0000140a00011858800c006220090007800c6
:106be000e3fb2f00808141008181410002102200df
:106bf000134978000108e800c00d22000008eb00ee
:106c0000b00e2000000c7800284090000028a3005f
:106c10000400320040c0b3002044980030c0b300ec
:106c2000bb0037001300200002102200a006220043
:106c300090407800c00d22000c140700e24f500075
:106c400004003600284090000004a1002044980071
:106c500003003700284090000004a0002044980062
:106c6000a84090000040eb000108a300a8003a00f3
:106c7000a00622001080fb000008a3009100320053
:106c8000c00d22000008eb00f00e2000000c780080
:106c9000284090000028a3000400320040c0b30048
:106ca0002044980030c0b300990037002300200032
:106cb00002102200a006220090407800c00d2200a1
:106cc0006a140700e24f500004003600284090008c
:106cd0000004a100204498000300370028409000e1
:106ce0000004a00020449800a84090000040eb0061
:106cf0000108a30086003a0000102200104178002d
:106d000011082100824878000000e8001041780056
:106d10000108210082487800000f2000000c780054
:106d2000284090000028a3000400320040c0b300b7
:106d30002044980030c0b3007500370011858000f2
:106d40000128a30003003a000004a1002044980099
:106d5000020037000004a000204498002841900061
:106d60000040eb000208a30069003a000120a000e7
:106d700011858800e0e621000008eb00100f2000dc
:106d8000000c7800284090000028a3000400320086
:106d900040c0b3002044980030c0b3005c0037000e
:106da0001108210091407800e0e62100980b0700cf
:106db000e24f500004003600284090000004a1007b
:106dc0002044980003003700284090000004a000f1
:106dd00020449800a84090000040eb000108a30068
:106de0004b003a00e0e621000008eb00200f2000f5
:106df000000c7800284090000028a3000400320016
:106e000040c0b3002044980030c0b30040003700b9
:106e10000108210091407800e0e621007c0b07008a
:106e2000e24f500004003600284090000004a1000a
:106e30002044980003003700284090000004a00080
:106e400020449800a84090000040eb000108a300f7
:106e50002f003a00e0e621000008eb00300f200090
:106e6000000c7800284090000028a30004003200a5
:106e700040c0b3002044980030c0b3002400370065
:106e800041252a00e0e621006c0d0700e24f50008a
:106e900004003600284090000004a100204498001f
:106ea00003003700284090000004a0002044980010
:106eb000a84090000040eb000108a30014003a0035
:106ec000a250a900a290a90061038100e00622005f
:106ed000908f5000070035008270ef000080e900bd
:106ee0000008eb0011c0b3006400400001487800c6
:106ef0007a30ec008250e20020ff3a0001ff3700b8
:106f000080c0b30020449800000ceb0030c0b300f8
:106f10004f04780000000600881f78000004780005
:106f2000284090000074a0002044980018007800c9
:106f3000c10b2000810f5000720032000e003e0095
:106f4000e4805000810f50001c00320003003e001e
:106f50000000e00017003200ff003700910b200016
:106f6000810f50002c0032008180e800810f50001a
:106f7000f9003a0045003700010c2000810f500055
:106f8000a300320004003e008100e900810f5000a0
:106f9000f1003a0078003700110c2000810f5000fa
:106fa000b70032008180e800810f5000ea003a000b
:106fb000cf003700800b2000000c780028409000a4
:106fc0000028a3000400320040c0b3002044980011
:106fd00030c0b300e4003700e18380000100e0002e
:106fe000030034000004a100204498000200370090
:106ff0000004a00020449800284190000040eb00cd
:107000000208a300d8003a008100e900e18388006b
:10701000900b2000000c7800284090000028a3006e
:107020000400320040c0b3002044980030c0b300d8
:10703000cd003700118580000128a30003003a002d
:107040000004a10020449800020037000004a000c2
:1070500020449800284190000040eb000208a30063
:10706000c1003a000120a00011858800b00622006e
:1070700011c0b30090cf10003b003a00c00d2200b9
:107080000008eb00b00b2000000c780028409000b6
:107090000028a3000400320040c0b3002044980040
:1070a00030c0b300b0003700130020006208210098
:1070b000a006220090407800c00d22006b1307004c
:1070c000e24f500004003600284090000004a10068
:1070d0002044980003003700284090000004a000de
:1070e00020449800a84090000040eb000108a30055
:1070f0009d003a00e0e621000008eb00c00b2000f4
:10710000000c7800284090000028a3000400320002
:1071100040c0b3002044980030c0b3009200370054
:107120006108210091407800e0e62100b80a0700dc
:10713000e24f500004003600284090000004a100f7
:107140002044980003003700284090000004a0006d
:1071500020449800a84090000040eb000108a300e4
:107160005f00320080003700c00d22000008eb00f5
:10717000f00b2000000c7800284090000028a300ad
:107180000400320040c0b3002044980030c0b30077
:10719000750037002300200002102200a006220004
:1071a00090407800c00d220030130700e24f5000dd
:1071b00004003600284090000004a10020449800fc
:1071c00003003700284090000004a00020449800ed
:1071d000a84090000040eb000108a30062003a00c4
:1071e00000102200904078006208210001497800d8
:1071f0000000e80090407800520821000149780022
:10720000e0e621000008eb00000c2000000c7800f4
:10721000284090000028a3000400320040c0b300c2
:107220002044980030c0b3004f00370061082100af
:1072300091407800e0e62100750a0700e24f500017
:1072400004003600284090000004a100204498006b
:1072500003003700284090000004a000204498005c
:10726000a84090000040eb000108a3003e003a0057
:10727000e0e621000008eb00100c2000000c780074
:10728000284090000028a3000400320040c0b30052
:107290002044980030c0b30033003700510821006b
:1072a00091407800e0e62100590a0700e24f5000c3
:1072b00004003600284090000004a10020449800fb
:1072c00003003700284090000004a00020449800ec
:1072d000a84090000040eb000108a30022003a0003
:1072e000e0e621000008eb00300c2000000c7800e4
:1072f000284090000028a3000400320040c0b300e2
:107300002044980030c0b3001700370041252a0000
:10731000e0e62100490c0700e24f5000040036006f
:10732000284090000004a10020449800030037008a
:10733000284090000004a00020449800a84090003d
:107340000040eb000108a30007003a00a250a9008a
:107350007a30ec0017ff370080c0b300204498005b
:10736000000ceb0030c0b3004f04780000000600b2
:10737000804078000040eb0002c3b30082cf500091
:107380003d00320010c0b3000241e80082cf50003f
:107390003900320020c0b3000241e80082cf500023
:1073a0003500320030c0b3000241e80082cf500007
:1073b0003100320040c0b3000241e80082cf5000eb
:1073c0002d00320050c0b3000241e80082cf5000cf
:1073d0002900320060c0b3000241e80082cf5000b3
:1073e0002500320070c0b3000241e80082cf500097
:1073f0002100320080c0b3000241e80082cf50007b
:107400001d00320090c0b3000241e80082cf50005e
:1074100019003200a0c0b3006841410082cf500083
:1074200015003200b0c0b3000241e80082cf500026
:1074300011003200c0c0b3000241e80082cf50000a
:107440000d003200d0c0b3000241e80082cf5000ee
:1074500009003200e0c0b3000241e80082cf5000d2
:107460000500320000c0eb000241e80082cf50006e
:1074700001003a00f0c0b30000000600881f780049
:1074800000047800284090000074a0002044980078
:1074900018007800010d2000810f500044003200d8
:1074a00007003e008180e900810f5000100032008b
:1074b00026003e000000e0000b003200b70037005d
:1074c000510d2000810f5000760032008100e8004d
:1074d000810f500094003200e5805000810f500071
:1074e000ae003a004e003700e00c2000000c78009f
:1074f000284090000028a3000400320040c0b300e0
:107500002044980030c0b300a8003700f183800009
:107510000100e000030034000004a10020449800b2
:10752000020037000004a000204498002841900089
:107530000040eb000208a3009c003a008100e90033
:10754000f1838800f00c2000000c780028409000a7
:107550000028a3000400320040c0b300204498007b
:1075600030c0b30091003700118580000138a300be
:1075700003003a000004a1002044980002003700f4
:107580000004a00020449800284190000040eb0037
:107590000208a30085003a000130a0001185880090
:1075a00000e821000008eb00000d2000000c78002e
:1075b000284090000028a3000400320040c0b3001f
:1075c0002044980030c0b3007800370012c0b300e8
:1075d0004108210000e821000c0b0700e24f500099
:1075e00004003600284090000004a10020449800c8
:1075f00003003700284090000004a00020449800b9
:10760000a84090000040eb000108a30067003a008a
:1076100000e821000008eb00100d2000000c7800ad
:10762000284090000028a3000400320040c0b300ae
:107630002044980030c0b3005c00370012c0b30093
:107640003108210000e82100f00a0700e24f500055
:1076500004003600284090000004a1002044980057
:1076600003003700284090000004a0002044980048
:10767000a84090000040eb000108a3004b003a0036
:10768000a270a90084d0bf0039ff070084f0b700c2
:1076900083d0bf0036ff070083f0b700500d2000f5
:1076a000000c7800284090000028a300040032005d
:1076b00040c0b3002044980030c0b3003b00370006
:1076c000118580000148a30003003a000004a100d6
:1076d00020449800020037000004a00020449800d5
:1076e000284190000040eb000208a3002f003a0060
:1076f0000140a000118588004108210091407800d8
:107700008180fb00c408dd003208210012417800ae
:107710000010220001487100c00d22000008eb009b
:10772000600d2000000c7800284090000028a30085
:107730000400320040c0b3002044980030c0b300c1
:107740001a0037001300200002102200a0062200b9
:1077500090407800c00d220044110700e24f500015
:1077600004003600284090000004a1002044980046
:1077700003003700284090000004a0002044980037
:10778000a84090000040eb000108a30007003a0069
:10779000a290a9007a30ec0053ff370080c0b300fc
:1077a00020449800000ceb0030c0b3004f04780078
:1077b00000000600e4874700889fbe008a9fbe0045
:1077c0008c9fbe008e1f7800000478002840900037
:1077d0000074a0002044980018007800d106200012
:1077e000810f5000790032000e003e00e88050000a
:1077f000810f50002000320003003e000000e00036
:10780000170032005501370061062000810f50003b
:1078100032003200e6804000810f50004f013a00f4
:107820005100370031082000810f5000b9003200ac
:1078300004003e00f5805000810f500047013a00df
:107840007e003700810a2000810f500011013200b4
:10785000e3804000810f500040013a0027013700cb
:107860008870ef008970ef008770ef008a70ef007a
:1078700050062000000c7800284090000028a3004b
:107880000400320040c0b3002044980030c0b30070
:1078900036013700118580000138a30003003a004b
:1078a0000004a10020449800020037000004a0005a
:1078b00020449800284190000040eb000208a300fb
:1078c0002a013a000130a0001185880000e821005b
:1078d0000008eb0060062000000c780028409000b3
:1078e0000028a3000400320040c0b30020449800e8
:1078f00030c0b3001d01370012c0b300d108210011
:1079000000e82100410a0700e24f50000400360061
:10791000284090000004a100204498000300370094
:10792000284090000004a00020449800a840900047
:107930000040eb000108a3000c013a00a270a9006e
:10794000d90821009944780000c5b30080cf5400c5
:10795000a000320000c0e80080cf540067003a0069
:10796000c0062000000c7800284090000028a300ea
:107970000400320040c0b3002044980030c0b3007f
:10798000fa003700118580000138a30003003a0097
